:020000040800F2
:10000000689C002019030008D53A00080D2E00084E
:10001000D13A0008C1270008974B000800000000F3
:100020000000000000000000000000008102000845
:100030003528000800000000C50200082948000813
:1000400033030008330300083303000833030008B8
:1000500033030008330300083303000833030008A8
:100060003303000833030008330300083303000898
:100070003303000833030008330300083303000888
:100080003303000833030008330300083303000878
:100090003303000833030008330300083303000868
:1000A0003303000833030008330300083303000858
:1000B0003303000833030008330300083303000848
:1000C0003303000833030008330300083303000838
:1000D00033030008F54800087D4900083303000891
:1000E0003303000833030008330300083303000818
:1000F0003303000833030008330300083303000808
:1001000033030008330300083303000833030008F7
:1001100033030008330300083303000833030008E7
:1001200033030008330300083303000833030008D7
:1001300000F002F800F094F80AA090E8000C824465
:100140008344AAF10107DA4501D100F089F8AFF242
:10015000090EBAE80F0013F0010F18BFFB1A43F0A5
:1001600001031847B0870000D0870000103A24BF71
:1001700078C878C1FAD8520724BF30C830C144BF0C
:1001800004680C607047000000230024002500264E
:10019000103A28BF78C1FBD8520728BF30C148BFEA
:1001A0000B6070476E2900F04D85702900F03F828A
:1001B000662908F05A82652908F05782672908F0F5
:1001C0005482612908F0538203681B0A28BF41F05A
:1001D0008001692900F0B081642900F0AD817529A2
:1001E00000F0AA816F2901F05C80782900F00B8271
:1001F000E92900F0F787E42900F0F487F52900F0F9
:10020000F187EF2901F05980F82900F00A8203688C
:10021000DB0928BF41F08001632900F0668773295C
:1002200000F06B87E32901F0BB82F32901F0C08263
:10023000002070471FB59DE8030000F057FC01F057
:1002400083F804000020002107F07CF9401C606066
:100250000020002107F08CF9E0601FBD10B510BD33
:1002600001F098FB1146FFF7E5FF04F0BFFF01F036
:10027000C4FB03B4FFF7F2FF03BC04F0B2FD0000BF
:10028000224B19680868B0E8F00F80F30988BFF3C3
:100290006F8F4FF0000080F311884EF00D0E704705
:1002A0000000000006480068006880F3088862B615
:1002B00061B6BFF34F8FBFF36F8F00DF00BF00BF8A
:1002C00008ED00E0EFF30980BFF36F8F0F4B1A6862
:1002D00020E9F00F106008B54FF0500080F311884E
:1002E000BFF34F8FBFF36F8F06F04AFE4FF0000051
:1002F00080F31188BDE8084019680868B0E8F00F7D
:1003000080F30988BFF36F8F704700BF580000204B
:10031000EFF305807047000009488047094800470F
:10032000FEE7FEE7FEE7FEE7FEE7FEE7FEE7FEE7A5
:10033000FEE7FEE704480549054A064B7047000002
:10034000954800083101000868960020689C00204C
:10035000689800206898002070B5064600F0A6FB5B
:10036000056806F10B0020F00704B4429CBF002092
:1003700070BD2B466A68BAB11068A04210D304F170
:10038000080188423CBF5068586007D35168101973
:1003900041601168091B016058601460101D70BD38
:1003A00013465268002AE7D12146284600F08AFB0E
:1003B0000028DED170BD70B50446051F00F076FB45
:1003C0000068002C14BF446870BD002C18BFAC42FC
:1003D0003CBF20466468F8D301680A18AA4218BFD7
:1003E000456003D12A680546114401602868411917
:1003F000A1421CBF6C6070BD6168696021680844DF
:10040000286070BD10B5044600F048FB0068005D30
:10041000C00602D504F1200010BD204610BD00002A
:100420007CB51D4616460C00009001D02044401EAD
:10043000074B7B442A4669460190304600F02BFE6C
:1004400005461CB10020694600F038FE28467CBDF8
:10045000910C00000FB4044910B503AA029800F0F3
:1004600051FE10BC5DF814FBBC0000200FB41CB59D
:10047000084B06AA7B4469460090059800F00BFEE5
:1004800004460020694600F019FE20461CBC5DF8B9
:1004900014FB0000450C000070B504468569006837
:1004A000C10601D5302600E02026C00707D070BD68
:1004B000D4E9012130469047206A401C20626D1E1D
:1004C000F6D570BD70B5044685690078C00707D1C0
:1004D00070BDD4E9012120209047206A401C206291
:1004E0006D1EF6D570BD70B50C460546012A05D0C7
:1004F0002878800600D5EA69002302E0012305E0A0
:100500005B1C934202D2E05C0028F9D1A869E6188E
:10051000C01AA861286A184428622846FFF7BCFF61
:1005200004E0D5E9012114F8010B9047B442F8D357
:100530002846FFF7C7FF70BD2DE9F04106460024AD
:1005400010687529314616A510D000F010FB002860
:1005500002DA404213A507E031688A0701D512A5E7
:1005600002E0490704D511A5012401E000F008FBD1
:1005700000210A2206F1240709E0B0FBF2FCB0FBDF
:10058000F2F302FB1C00303078541846491C002856
:10059000F3D123462A463046BDE8F04100F0F9BACF
:1005A000000000002D0000002B00000020000000D3
:1005B000F0B40D460188090502D5214C7C4402E0C7
:1005C0001F4C7C440E34002100F1240608E002F0A8
:1005D0000F071209E75D42EA03721B097754491CB1
:1005E00052EA0307F3D102780023120704D5702DD5
:1005F00006D009B1022311342246F0BC00F0C9BA7A
:1006000001231034F8E770B504460D462146106802
:1006100000F0B6FA024629462046BDE870400023A5
:10062000C6E7D21D22F00703D3E90023C0E7036821
:10063000126843F0200303600823C3610023B7E777
:10064000B38100002DE9F05F894604464FF0000AAF
:10065000DFF874B1FB44C0F820A02046E168884769
:10066000002874D0252806D0D4E901219047206ABB
:10067000401C2062F1E700265F462046E16888477B
:100680002028054607DB312D05D2781910F8200CFB
:1006900008B10643F1E7B00701D526F00406C4F817
:1006A0001CA00027C4F818A02A2D09D0284604F061
:1006B00091FB38B304EB8708303DC8F8185019E0B7
:1006C00059F8041B204604EB87029161E1688847D2
:1006D000012F054618D1E069002820DA26F020060F
:1006E0001DE0D8F8180000EB800005EB4000303822
:1006F000C8F818002046E1688847054604F06AFB00
:100700000028EED1012F0AD02E2D08D12046E16815
:1007100088477F1C0546022F46F02006C4DBA069EF
:10072000002803DA404246F00106A061F00701D03C
:1007300026F010066C2D0BD0682D09D04C2D39D029
:100740006A2D35D0742D35D07A2D33D016E038E0AF
:10075000E1682F4620468847B842054609D16C2FEC
:1007600026D04FF48060E16806432046884705465E
:1007700004E06C2F1AD04FF4807006430DB3A5F13E
:100780004100192802D8203546F400664A46294619
:10079000204626604E46FFF705FD80B101280BD0AC
:1007A000F61D26F0070000F1080956E74020E4E7AF
:1007B0008020D8E70020D6E706F104094DE7284657
:1007C00052E7206ABDE8F09F4381000070B50646FD
:1007D00000F070F90468054630460A22002100F056
:1007E00077FD2C6070BD401ECAB210F8011F8A420E
:1007F00002D00029F9D10020704710B5431E13F82C
:10080000014F002CFBD105E011F8014B002C03F83F
:10081000014B03D0521EF7D20021197010BD30B524
:1008200005460B462A4613F8014B12F8010B08B196
:10083000A042F8D01CB1002802D06D1CF1E7284678
:1008400030BD10B5431C02E010F8011B71B18107E7
:10085000FAD14FF0013202C88C1A8C4314EAC2114B
:10086000F9D0C01A0A0603D0C01E10BDC01A10BDB0
:100870000A0401D0801E10BD0902FCD0401E10BD2C
:1008800040EA010370B59B072ED14FF00136042AD0
:100890002AD308C810C99D1B9D43121F15EAC6150F
:1008A00017D0D8B2E1B2401A50EA056110D198B21F
:1008B000A1B2401A50EA05410AD123F07F4024F04A
:1008C0007F41401A50EA052102D1180EA0EB1460B6
:1008D00070BDA342DBD018BA21BA884201D90120E9
:1008E00070BD4FF0FF3070BD0AB9002070BD10F828
:1008F000013B11F8014B63B1A3420AD1521E08D04B
:1009000010F8013B11F8014B1BB1A34201D1521E5B
:10091000EDD1181B70BD032A40F2308010F0030C9B
:1009200000F0158011F8013BBCF1020F624498BF42
:1009300011F801CB00F8013B38BF11F8013BA2F1DF
:10094000040298BF00F801CB38BF00F8013B11F05A
:10095000030300F02580083AC0F0088051F8043BFA
:10096000083A51F804CBA0E80810F5E7121D5CBF67
:1009700051F8043B40F8043BAFF30080D20724BF9A
:1009800011F8013B11F801CB48BF11F8012B24BF2E
:1009900000F8013B00F801CB48BF00F8012B70477D
:1009A00010B5203AC0F00B80B1E81850203AA0E80A
:1009B0001850B1E81850A0E81850BFF4F5AF5FEA3E
:1009C000027C24BFB1E81850A0E8185044BF18C9F1
:1009D00018C0BDE810405FEA827C24BF51F8043B98
:1009E00040F8043B08BF7047D20728BF31F8023BEC
:1009F00048BF11F8012B28BF20F8023B48BF00F880
:100A0000012B70474FF000020429C0F0128010F053
:100A1000030C00F01B80CCF1040CBCF1020F18BFDA
:100A200000F8012BA8BF20F8022BA1EB0C0100F06D
:100A30000DB85FEAC17C24BF00F8012B00F8012B40
:100A400048BF00F8012B70474FF0000200B5134675
:100A500094469646203922BFA0E80C50A0E80C50DE
:100A6000B1F12001BFF4F7AF090728BFA0E80C508F
:100A700048BF0CC05DF804EB890028BF40F8042B88
:100A800008BF704748BF20F8022B11F0804F18BFF5
:100A900000F8012B704770477047704710B500F0A1
:100AA00053FC001D10BD00BF9D6A00000048704748
:100AB0000C9600200048704704960020704770474D
:100AC0007047704738B504460A4600206946AFF3C0
:100AD0000080002808BF38BD02460099204600F07B
:100AE00037FC012038BD012000F04CBFF8B5AFF352
:100AF0000080054600200C46102000BF0646A819BD
:100B0000A0420DD9324669460020AFF300800700AD
:100B100008BF00F037FF0098A04218BF0546C4196F
:100B2000FFF7C4FF05600746F01D20F007004619D7
:100B3000284600F00AF8B44208BFF8BDA21B3146AF
:100B40003868BDE8F84000F003BC00210160C0E94E
:100B5000011070471020704710B5FFF7ABFF006819
:100B600010BD10B50446FFF7A5FF046010BD09686D
:100B70004A0501D540B27047C905FCD500B270479F
:100B800009684A0501D5C0B27047C905FCD580B2D5
:100B900070472DE9F0470D4699469246044600F10C
:100BA00024080168880604D5E06921F0100121605D
:100BB00000E00120A84201DD471B00E00027A169F9
:100BC0007A1902EB0900081AA0612078C00602D445
:100BD0002046FFF761FC002608E0D4E901211AF85D
:100BE00006009047206A401C761C20624E45F4DBCC
:100BF0002078C0060AD52046FFF74EFC06E0D4E96F
:100C0000012130209047206A401C2062381EA7F145
:100C10000107F4DC07E0D4E9012118F8050090474A
:100C2000206A401C2062281EA5F10105F3DC204645
:100C3000FFF748FC2078000602D50220BDE8F087C7
:100C40000120FBE711680268006A530501D50870AE
:100C50000AE0D30501D5088006E0130603D5C217C4
:100C6000C1E9000200E008600120704770472DE9EB
:100C7000FF4F0C461E464FF0FF378BB0D2E9000104
:100C8000DDF860800A908A46C1F30A5505B93D46F1
:100C9000002108464FF00000BAF1000F00F44000B8
:100CA00005DA00EB80004FF4400101EA50004FEA02
:100CB0009059B9F1010F00DDB9460A9850EA4A008F
:100CC0000ED044F61050A5F2FF3545432F14B8F16D
:100CD000000F1ED07542291E1EDDC9F100021CE066
:100CE000B8F1010F4FF0000001D0302103E0F243D2
:100CF00005E02154401CB042FBDB304600220021BD
:100D000021540B99C1F80880C1E900200FB0BDE85B
:100D1000F08FBD1B6D1CDEE74A4600DA694206A86B
:100D200000F09AFD06AB93E8070003AB83E80700E9
:100D300050460A9900F0F8FE8DE80700A0F5005033
:100D40001F3800900398002D0ADD42F21F014A4629
:100D50000844002303A90390684601F061F909E003
:100D6000A0F500504A461F38002303A903906846A7
:100D700001F06BF98DE807000004000C03D04FF080
:100D8000FF30410800E01046B8F1000F03D0002208
:100D9000009215461EE0751E05D400F0F3FA3032BD
:100DA00062556D1EF9D5B3460122084302D00022D8
:100DB0007F1C04E02078302801D100227F1E002A09
:100DC000099784D01DE0112D07DA00F0DBFA3032EC
:100DD00062556D1C50EA0102F5D1084302D000981B
:100DE000C8B10EE00021681E05E0235C625C63541C
:100DF0002254401E491C8142F7DBAB46A81B401E13
:100E00000990002004F80B000B98099AC0F808809C
:100E1000C0E9002B7AE711264FF0000857E72DE9CB
:100E2000F04F88460446D21D22F0070191B0D1E967
:100E30000001CDE90A0103F044FF02460B98C00F00
:100E400001D02D2007E02068810701D52B2002E08A
:100E5000202101EAC000032A099001D0072A05DBFE
:100E600003464146204600F051FC0BE12078800605
:100E700001D5E06900E00620B8F1650F814606D093
:100E8000B8F1660F18D0B8F1670F70D131E00020CB
:100E9000B9F1110F009001DB112301E009F1010309
:100EA0000AAA01A90CA8FFF7E2FEDDE90C700026F2
:100EB00009F10105834647E001204B4600904FF0C1
:100EC00000470AAA01A90CA8FFF7D1FEDDE90DB081
:100ED0000C995D46002610B909F101000D18B9EB17
:100EE000050003D4C0F1FF3609F10105A5EB0900A7
:100EF0002BE0B9F1010F01DA4FF001090020B9F13F
:100F0000110F0090484601DD112300E003460AAAB4
:100F100001A90CA8FFF7ABFEDDE90C704D460026D9
:100F20008346207800070AD4AB4500DA5D4601A865
:100F3000012D04DD411911F8011C302907D04F455E
:100F400002DA17F1040F04DA012082460FE06D1E69
:100F5000EEE7002F02DCED1B3E4403E0781CA842C4
:100F600000DD7D1CB81B00F1010A4FF0004720781E
:100F7000000703D4AA4501DB4FF0FF3A0021B7F187
:100F8000004F0DF143088DF8431024D002202B238D
:100F9000002F01DA7F422D230A21021EA0F1010059
:100FA00000DC5FB197FBF1FC97FBF1F201FB1C7CCD
:100FB00017460CF1300C08F801CDEEE7A8F101005E
:100FC00003702188090501D5452100E06521A0F1C4
:100FD000010800F8011C09980FA9A1EB0807FF1DE3
:100FE00000B10120411901EBEA70A1693844081AE7
:100FF000401EA0612078C00602D42046FFF74CFABC
:10100000099828B1D4E901219047206A401C206248
:101010002078C00622D52046FFF73EFA1EE0002EBB
:1010200004DBB34502DD01A8805D00E03020D4E997
:1010300001219047206A401C2062761CAAF1010021
:101040005FEA000A0AD100F07FF9C0680168405CDD
:10105000D4E901219047206A401C2062281EA5F196
:101060000105DCDC07E0D4E9012118F8010B904709
:10107000206A401C2062381EA7F10107F3DC2046DD
:10108000FFF720FA032011B041E6000001694A1C75
:1010900002610878704700B58FB0CDE901310021B9
:1010A000059105497944CDE9031011466846FFF7DB
:1010B000C9FA0FB000BD0000E5FFFFFF0A6802F8A3
:1010C000010B0A607047D1E900239A4202D2531CF7
:1010D0000B601070704710B5436913B1AFF3008017
:1010E00001E0FFF700FA012010BD127800F12401A1
:1010F0000A7000224A700122EDE711684FF0FF32BA
:10110000E9E70000074B70B50D467B44FFF7C3FFCE
:101110000446284600F012FC10B14FF0FF3070BDBD
:10112000204670BDC73E00002DE9FF5F15468A4688
:101130000446DFF8AC80F8440027D8E900103E46AA
:10114000CDE9001010E03AF816106A4602A800F047
:10115000F9FB411C07D02178890603D5E2693918CB
:1011600091420DD80744761C2078800602D5E069AC
:10117000B84205DDAE42E6DB3AF816000028E2D1BF
:10118000A069C01BA0612046FFF786F9D8E90010CE
:10119000CDE90010002017E03AF818106A4602A8BE
:1011A00000F0D0FBB0F1FF3F81460BD000250DF1E0
:1011B000080B05E0D4E901211BF8050090476D1CE0
:1011C0004D45F7D308F10100B0428046E4DB206AC8
:1011D000384420622046FFF775F9BDE8FF9F000004
:1011E000FE7600002DE9F0418046D21D22F0070274
:1011F0000025D2E90002F52915A614D0011E72F1CE
:10120000000106DA0023D0EB030063EB020211A613
:1012100008E0D8F800108B0701D50FA602E04907B7
:1012200001D50EA601251146002408F1240704E08B
:1012300000F0A8F830323A55641C50EA0102F7D1A8
:101240002B46324621464046BDE8F041FFF7A1BC9F
:10125000000000002D0000002B0000002000000016
:1012600030B4002100F1240408E002F00705D208A0
:10127000303542EA4372DB086554491C52EA0305E3
:10128000F3D10468002310A2250707D5A40600D4D3
:1012900021B1C46901230DA2641EC46130BCFFF7F3
:1012A00078BC10B5044621461068FFF769FC024679
:1012B0002046BDE810400023D2E7D21D22F00701EE
:1012C000D1E90023CCE7000000000000300000005E
:1012D0002DE9F04791460F4680460446002614F853
:1012E000015B2DB1FFF7DAFB0068405DC007F6D166
:1012F0002B2D02D02D2D18D0641E4A46394620468B
:1013000000F05AFA27B13968A14201D1C7F800802C
:101310004FF0020471050BD54042002803DDFFF7B2
:10132000C9FB0460A007BDE8F08746F48066E4E7E7
:101330000028F8DAFFF7BEFB04606FF00040F2E728
:10134000004870470496002000487047249600200B
:10135000034640688C46002818BF88423CBF0346BD
:101360004068F8D318681844884207D00CF103008D
:1013700020F00700001D411A521A0146081D0A609C
:10138000FFF719B830B5B0F10A024FEA900E71F1CB
:1013900000034EEA817EB0EB0E0061EB91014FEA53
:1013A000101E4EEA017E10EB0E0041EB11114FEAC8
:1013B000102E4EEA016E10EB0E0041EB11214FEAA8
:1013C000104E4EEA014E10EB0E0041EB1141401859
:1013D00041F100014FEAD00040EA41704FEAD101EB
:1013E00010EB80054FEA810444EA907444EB010459
:1013F0006D1944EB0404521BA3414FF0000348BF96
:101400000A3200D530BD401C41F1000130BD000062
:101410002DE9F04F04460D46D21D22F0070089B099
:10142000D0E900974846394603F04BFC0246F80FD6
:1014300001D02D2307E02068810701D52B2302E08E
:10144000202101EAC0038DF820300BB1012000E01B
:101450000020032A824601D0072A04DB29462046C1
:1014600000F054F93FE12078800601D40D2500E01A
:10147000E569C7F30A560D2D49DA00214FEA175BDB
:1014800008464FF00000002F00F4400007DA00EBA0
:1014900080004FF4400100EBD07001EA600081153C
:1014A000012901DD4FF0FF3100224FEA850CBCF12C
:1014B000180F06D31346ACF118004FF08052C2400B
:1014C00003E04FF4801323FA0CF30CF10C0CBCF185
:1014D000200F04D3ACF1200C09FA0CF001E007FA5C
:1014E0000CF000294FF0004801DD18B90FE00ED1D3
:1014F00040450CD319EB02095F4121B9404502D1A7
:101500009F4329EA0209BBEB175F00D0761C2088B5
:10151000000502D57B48784402E07A4878441938BF
:1015200008AA302302F80A30037C0AF10101002ED8
:101530000AF1020A53546A4602DC4FF0300101E01E
:101540004FF031014FF001088DF8001002D0A6F2E3
:10155000FF3603E059EA470100D06B4E002D02DC54
:101560002178090704D54FF002082E218DF80110CB
:10157000C44600210BE0C7F303433F01C35C491C91
:101580006D1E02F80830052908F1010801DA002D66
:10159000F1DC00210CE000EB1973491C1B786D1E77
:1015A000082902F808304FEA091908F1010801DAA0
:1015B000002DF0DC21688B0602D516E0A8F10108A9
:1015C000E04505DD02EB080313F8013C302BF5D0B4
:1015D000B8F1000F09DD02EB080313F8013C2E2BD4
:1015E00003D1090701D4A8F10108002D05DD3E2132
:1015F00002F808106D1E08F10108407C002E02F868
:10160000080008F1010804DA2D20764202F80800EB
:1016100002E02B2002F808000A214FF47A7086427B
:1016200008F101080BDB96FBF0F3303302F80830C9
:1016300096FBF0F308F1010800FB136601E0642E4D
:101640000CDB642096FBF0F3303302F8083096FB95
:10165000F0F308F1010800FB136601E00A2E06DB37
:1016600096FBF1F0303002F8080008F1010896FB13
:10167000F1F001FB1060303002F80800A16908F1B8
:10168000010808EB050202EB0A00081AA0612078A5
:10169000C00602D42046FEF7FFFE216A08AE01EB29
:1016A0000A00206204E0D4E9012116F8010B9047FA
:1016B000BAF1010AF7D22078C00602D52046FEF71B
:1016C000EBFE6E4609E016F8010B3E280FD0D4E978
:1016D00001219047206A401C2062B8F10108F2D233
:1016E0002046FEF7EFFE09B00320BDE8F08F206A28
:1016F0002844206203E0D4E90121302090476D1E88
:10170000EBD3F8E74173000002FCFFFF2DE9F04145
:101710001F46044603260168072A01F4006004DB23
:1017200008B116A505E016A503E008B115A500E06F
:1017300015A521F010002060A069C01EA0610FB1A6
:10174000401EA0612046FEF7A7FE4FB1D4E901215B
:1017500038469047206A401C2062C01C206206E088
:10176000206AFAE7D4E9012115F8010B9047761EAB
:10177000F8D22046FEF7A6FEBDE8F0814E414E00AD
:101780006E616E00494E4600696E660010B5436991
:1017900013B1AFF3008001E0FFF7C6FC012010BDDC
:1017A000128800F1240182840022C2840122EDE724
:1017B00011684FF0FF32E9E72DE9F05F82461546E8
:1017C0008B4600270AF10104B9460078302801D081
:1017D0009DB113E014F8010B0127782803D0582895
:1017E00001D045B10AE00DB1102D07D1002714F842
:1017F000010B102502E0082500E00A250026B0466E
:101800000EE005FB080005FB06F101271FFA80F832
:1018100001EB1046B6F5803F00D3B94614F8010B32
:10182000294600F0DCF80028EBDABBF1000F05D008
:101830000FB1641E00E05446CBF80040B9F1000F30
:1018400006D0FFF737F902210160C81EBDE8F09FFE
:1018500048EA0640FAE700002DE9F04781461646BF
:101860008AB0354878440DC88DE80D003248784478
:10187000801C03AC0DC884E80D0041F69B30084481
:10188000372190FBF1F290FBF1F5A5F1800501FB0A
:1018900012041B3C02D56442012000E00020DFF866
:1018A00098A080460027FA44AAF1BE0A0EE0E0079D
:1018B0000AD03246684607EB470101230AEB810153
:1018C00000F0C3FB8DE8070064107F1C002CEED1F4
:1018D000194F7F44AE3F19E0E80715D007EB04101D
:1018E0000DF1180A90E80E008AE80E00C068F04278
:1018F00001D1981908903246012306A903A800F0E7
:10190000A4FB03AB83E807006D10641C002DE3D13A
:101910004FF0010332466946B8F1000F03A802D028
:1019200000F07EFB01E000F090FBC9E90001C9F87E
:1019300008200AB0BDE8F08784700000007B00F04A
:101940008000704770B516460C460546FFF7A6F8AE
:10195000036893F80101012806D0FF2C0FD8185D09
:1019600068B101202C7070BDD3F8070132462146C2
:1019700003F2071303442846BDE8704018474FF0B0
:10198000FF3070BD10B500F047F8BDE8104000F022
:101990003DB870477546FFF7D3FCAE460500694673
:1019A000534620F00700854618B020B5FEF7C2FC6C
:1019B000BDE820404FF000064FF000074FF0000850
:1019C0004FF0000B21F00701AC46ACE8C009ACE8D1
:1019D000C009ACE8C009ACE8C0098D4670473A2898
:1019E00000D2303820F02002412A01D3A2F1370082
:1019F000884201D34FF0FF30704710B50446AFF373
:101A000000802046BDE81040FEF733BC002801D01E
:101A100003F0E7B97047000010B5012805D0002198
:101A200003A000F061F8012010BD09A1F8E7000053
:101A300053494752544D454D3A204F7574206F66B7
:101A40002068656170206D656D6F7279000000001F
:101A50003A2048656170206D656D6F727920636F03
:101A600072727570746564004FF0013C50F8042B7D
:101A700051F8043B9A4221D1A2EB0C03934313EAA1
:101A8000CC1317D150F8042B51F8043B9A4215D1CE
:101A9000A2EB0C03934313EACC130BD150F8042BA5
:101AA00051F8043B9A4209D1A2EB0C03934313EA89
:101AB000CC13DBD04FF00000704700BFD01A01BA42
:101AC000B1FA81F101F0180122FA01F0CB40C1F125
:101AD0002001DBB2C0B2C01A2CFA01F3D11A914333
:101AE00011EAC311E6D1704770B505460C460A20CD
:101AF00000E06D1C00F011F835B128780028F8D10D
:101B000002E0641C00F009F814B120780028F8D134
:101B1000BDE870400A20AFF3008008B569468DF833
:101B200000000320ABBE08BD5FEA400C08BF91F087
:101B3000000F4FEA8C234FEAC12243EA51514FEA8A
:101B40001C5018BF00F5F0404FEA300018BF41F0BC
:101B500000415FEA6C5C00F02980BCF1FF3F08BFE8
:101B600040F080407047130C06BF12044FF0100C79
:101B70004FF0000C130E04BF12020CF1080C130FEF
:101B800004BF12010CF1040C930F04BF92000CF17E
:101B9000020CD30F04BF52000CF1010C11464FF0A0
:101BA0000002A0F11F00A0EB0C00704711F0004FE5
:101BB00008BF704731F000413FF4D5AF0B0C06BFB2
:101BC00009044FF0100C4FF0000C0B0E04BF09027B
:101BD0000CF1080C0B0F04BF09010CF1040C8B0F66
:101BE00004BF89000CF1020CCB0F04BF49000CF1BB
:101BF000010CCCF12003A0EB0C0022FA03F302FA53
:101C00000CF241EA030100F10100704720F07F4C23
:101C100080EA030023F07F47ACEB070303F57C5316
:101C200000F0004003F1FF032DE980494FEA154B16
:101C300009B44FEA144325EA0B4E24EA03480FF295
:101C4000042606EB132749083E785FEA320203FBBD
:101C50000667C7F5000707FB06F64FEA54374FEA59
:101C6000D64606F1020607FB066CCCF1005C4FEA93
:101C70001C472CEA074C07FB06F40CFB06F504EBAB
:101C800015464FEA961634BF00204FF000404FEA49
:101C9000D13706FB07FC4FEA1C4C0CFB0BF7D21BA1
:101CA00003FB0CF761EB07010CFB0EF7B0EB0740F1
:101CB00072EB17420CFB08F734BFA2EB0742B2EB02
:101CC000074261EB17414FEA0C444FEA910706FBCC
:101CD00007FC4FEA1C4C0CFB0BF7B0EBC74072EB58
:101CE000573203FB0CF734BFA2EBC742B2EBC7423B
:101CF00061EB57310CFB0EF7B0EBC70072EB57727C
:101D00000CFB08F734BFA2EBC702B2EBC70261EBD2
:101D10005771039F4FEA816141EA921104EBCC04B1
:101D20004FEAD1374FEA826206FB07FC42EA901283
:101D30004FEA80604FEA1C4C0CFB0BF7D21B03FBF5
:101D40000CF761EB07010CFB0EF7B0EB074072EBF1
:101D500017420CFB08F734BFA2EB0742B2EB074275
:101D600061EB17414FEA8C554FEA910704EB9C2435
:101D700006FB07FC4FEA1C4C0CFB0BF7B0EBC74013
:101D800072EB573203FB0CF734BFA2EBC742B2EB46
:101D9000C74261EB57310CFB0EF7B0EBC70072EB9B
:101DA00057720CFB08F734BFA2EBC702B2EBC702B5
:101DB00061EB577115EB4C254FEA816141EA9211B5
:101DC0004FEA82624FEAD13742EA901206FB07FCE3
:101DD00044F100044FEA80604FEA1C4C0CFB0BF707
:101DE000D21B03FB0CF761EB07010CFB0EF7B0EB0A
:101DF000074072EB17420CFB08F734BFA2EB074217
:101E0000B2EB074261EB174115EB1C154FEA81312C
:101E100041EA92414FEA823242EA90424FEA8030F0
:101E20004FEA0C7644F1000448EA03434EEA0B48BB
:101E30004FF0000EB2EB080C71EB030724BF6246B3
:101E400039464EEB0E0E4FF0000B0018524149413F
:101E50004BEB0B0BB2EB080C71EB03077BF1000BA8
:101E600024BF624639464EEB0E0E4FF0000B0018B1
:101E7000524149414BEB0B0BB2EB080C71EB0307E2
:101E80007BF1000B24BF624639464EEB0E0E51EA41
:101E9000020718BF46F0010616EB0E7655F1000258
:101EA00054F1000103D5BDE88901BDE80088BDE813
:101EB0008901BDE80048B619524141EB0101A3F187
:101EC0000103704780807F7E7D7C7B7A797877768E
:101ED00076757473727171706F6E6E6D6C6C6B6A07
:101EE0006A696868676666656464636362616160A5
:101EF000605F5F5E5E5D5D5C5C5B5B5A5A59595822
:101F0000585757565655555554545353525252518B
:101F1000515050504F4F4F4E4E4D4D4D4C4C4C4BE1
:101F20004B4B4A4A4A494949484848474747474628
:101F30004646454545444444444343434342424264
:101F400042414141002B9C4630D477002BD01CB538
:101F50004FEA370703B44FF010004FF01001BAF109
:101F6000000F06D0BCF1000FDCBF40F0080040F0CD
:101F700008014FF000000FBCBDE810400BF1010B51
:101F8000BBF1010F08BF5FEA170722BF12F1010280
:101F900011F101014FF0004143F1000300F0004056
:101FA00043EA00007047F9D35708D0E746EA0646EF
:101FB00013F1400F4FEA16461FDD13F1200FDFBF6C
:101FC00016430A46002120335B42BED0C3F12007EE
:101FD00046EA064602FA07F74FEA164646EA0706B9
:101FE000C3F1200722FA03F201FA07F721FA03F1FD
:101FF0004FF0000342EA0702A7E746EA020646EA74
:1020000006464FEA164646EA0106BCBF46EA0646C1
:10201000360C4FF000034FF000024FF0000194E740
:102020002DE9804C9A46934670B491E8380007C871
:1020300031EA400C48BF34EA430C03D5FFF7E6FD14
:10204000FFF780FFF0BCBDE8008C2DE9804C9A467C
:10205000934670B491E8380007C810F0804F08BF6D
:1020600013F0804F03D100F005F8FFF76BFFF0BCD1
:10207000BDE8008C20F07F4780EA030023F07F4C0E
:1020800007EB0C03A3F57C5300F00040A3F1FE0323
:1020900092F0000F00F0B38095F0000F00F0778011
:1020A0002DE901494FEA11404FEA144621EA004860
:1020B00000FB06FC24EA064708FB06F607FB08F8C7
:1020C00000FB07F718EB06484CEB164C4FEA124B97
:1020D00018EB07484FEA15464CEB174022EA0B4E27
:1020E0000BFB06FC25EA06470EFB06F607FB0EFE79
:1020F0000BFB07F71EEB064E4CEB164C4FF00006A1
:102100001EEB074E4CEB174B18EB0B0840F1000091
:1021100018EB0E0B58EB000840F100008F1A4FF03F
:1021200000013CBFC943661B14BFB5EB040C002182
:102130003CBFC943F61B4FEA17444EEA8E0E27EA0E
:1021400004454FEA1C4704FB07622CEA074C05FBD9
:1021500007F70CFB05F604FB0CFC16EB074642EBFD
:10216000174216EB0C4642EB1C421BEB060658EBE3
:102170000202414146EA9E0601D5BDE80189B61931
:10218000524141EB0101A3F10103BDE801894FEA8E
:1021900014454FEA114724EA054621EA074C05FB9E
:1021A00007F406FB07F70CFB06F105FB0CFC11EB33
:1021B000074144EB17444FEA124711EB0C4144EB43
:1021C0001C4422EA074C05FB07F206FB07F70CFB51
:1021D00006F605FB0CFC16EB074642EB174216EB26
:1021E0000C4642EB1C456A1854F1000148BF704789
:1021F000B619524141EB0101A3F10103704795F07B
:10220000000F37D04FEA11424FEA144721EA024645
:1022100024EA074C02FB07F106FB07F70CFB06F468
:1022200002FB0CFC14EB074441EB17414FEA154746
:1022300014EB0C4441EB1C4125EA074C02FB07F56B
:1022400006FB07F70CFB06F602FB0CFC16EB074639
:1022500045EB174516EB0C4645EB1C42121951F1A4
:10226000000148BF7047B619524141EB0101A3F18B
:10227000010370474FEA14454FEA114724EA054627
:1022800021EA074C05FB07F106FB07F70CFB06F2FA
:102290004FF0000605FB0CFC12EB074241EB174127
:1022A00012EB0C4251EB1C4148BF7047921841EBB6
:1022B0000101A3F10103704721B1826842F00102DC
:1022C000826003E0826822F00102826070470000B1
:1022D00010B504461248844208D10121401501F08E
:1022E000DFFF0021601501F0DBFF17E00D4884429D
:1022F00008D10121001501F0D3FF0021201501F0C4
:10230000CFFF0BE00848844208D10121C80301F047
:10231000C7FF00214FF4004001F0C2FF10BD0000D4
:102320000024014000280140003C014001460020FB
:102330008A6802F004020AB1012000E00020704720
:102340000146C86C80B270470246002013680B40FB
:102350000BB1012000E000207047014600208A6890
:1023600002F008020AB1012000E0002070470000DE
:1023700030B502460020002350680F4C20400D79F4
:102380000C6844EA05242043506090680B4C2040C0
:10239000D1E902542C434D7944EA4504204390602E
:1023A000D06A20F470000C7C641EE4B2234340EA3F
:1023B0000350D06230BD0000FFFEF0FFFDF7F1FFDB
:1023C000F0B504460D4600200021092D11DDE0681E
:1023D000A5F10A0606EB4607072606FA07F1884329
:1023E000A5F10A0606EB460603FA06F10843E0608B
:1023F0000CE0206905EB4507072606FA07F188433C
:1024000005EB450603FA06F108432061072A0FDAB7
:10241000606B561E06EB86071F2606FA07F18843F7
:10242000561E06EB860605FA06F10843606322E0B5
:102430000D2A0FDA206BD61F06EB86071F2606FA39
:1024400007F18843D61F06EB860605FA06F1084316
:10245000206310E0E06AA2F10D0606EB86071F2656
:1024600006FA07F18843A2F10D0606EB860605FA87
:1024700006F10843E062F0BD816841F00801816027
:10248000704721B1826842F4A002826003E0826852
:1024900022F4A00282607047816841F004018160EB
:1024A0007047000000B587B001214FF4017001F0C2
:1024B000E7FE4FF4004001F0C7FE1220ADF8040023
:1024C00000208DF8070001A9174800F0B5FB174858
:1024D000FFF7FEFE002002908DF80C008DF80D0035
:1024E0004FF4602004900020059001208DF8180022
:1024F00002A90E48FFF73CFF01210C48FFF7DCFE64
:102500000A48FFF7B9FF00BF0848FFF726FF002879
:10251000FAD10648FFF7C0FF00BF0448FFF706FFE7
:102520000028FAD107B000BD000801400024014096
:102530001CB5012404F004FB2C48022100230A02EC
:10254000CDE900102AA12D4804F06CFE0446012CB0
:1025500002D12BA0FDF77EFF3048022100230A02A2
:10256000CDE900102EA1314804F05CFE0446012C98
:1025700002D12FA0FDF76EFF3448032100234FF452
:102580000072CDE9001032A1344804F04BFE04463D
:10259000012C02D132A0FDF75DFF37480521002351
:1025A0004FF40072CDE9001034A1374804F03AFE30
:1025B0000446012C02D135A0FDF74CFF3A48022118
:1025C00000230A02CDE9001038A13B4804F02AFE9E
:1025D0000446012C02D139A0FDF73CFF3C480068BD
:1025E00004F0DEFB04F0F2FA1CBD00004400002001
:1025F0004C4544315F5461736B0000001D2F00088F
:10260000B4B4BDA84C4544315F5461736BC8CECEA1
:10261000F1B3C9B9A6210D0A00000000480000204E
:102620004C4544325F5461736B000000592F000821
:10263000B4B4BDA84C4544325F5461736BC8CECE70
:10264000F1B3C9B9A6210D0A000000004C0000201A
:102650004448545F5461736B000000000528000873
:10266000B4B4BDA84448545F5461736BC8CECEF176
:10267000B3C9B9A6210D0A005000002052656C6153
:1026800079735F5461736B00F5430008B4B4BDA85F
:1026900052656C6179735F5461736BC8CECEF1B3D0
:1026A000C9B9A6210D0A00005400002077696669A7
:1026B0005F5461736B00000039700008B4B4BDA8AA
:1026C00077696669C8CECEF1B3C9B9A6210D0A00F3
:1026D0004000002010B5044602F030FD462002F014
:1026E000FBFC02F05FFD012800D110BD204602F086
:1026F000F3FC02F057FD012801D10220F5E702F0BA
:102700003BFD0020F1E710B500F007F81020FFF7BF
:10271000E1FF782002F01AFC10BD10B50120FFF790
:10272000D9FF10BD10B5002402F008FD472002F0CB
:10273000D3FC02F037FD012801D1002010BD02F0CA
:10274000A7FC044602F054FC02F0A2FC00EB0420BB
:1027500084B202F083FC02F00FFD2046EEE7000099
:1027600010B54FF4407001F0EFF900F0FFFB4FF4AB
:10277000E13004F04BF94FF4E13002F00FFA04F0CD
:10278000EBF800F07DF800F05BFBFFF78BFEFFF746
:10279000BAFF462002F04AFC01F078FF0821202011
:1027A00001F0A0FF01F07AFF0349086008460068C5
:1027B000000C0249086010BD380000203C000020D9
:1027C00000BFFEE708B50120ADF8000048208DF8F5
:1027D00003006946014800F02FFA08BD000C0140D3
:1027E00008B50120ADF8000010208DF8030003208B
:1027F0008DF802006946024800F01EFA08BD00008C
:10280000000C014010E04FF47A7004F087FA4FF4A6
:102810007A7004F083FA054801F01DF90A210120BD
:1028200000F0C2FA02490860EDE70000280000202D
:10283000340000207047000010B5002408E0601C40
:1028400084B2012002F0A2FB322C01DD012010BD78
:1028500001210A4800F07BFA0128F0D000BF0121D5
:10286000064800F074FA0028F9D000BF012103489F
:1028700000F06DFA0128F9D00020E8E7000C0140D3
:1028800008B50121882001F0FBFC0120ADF8000013
:1028900010208DF8030003208DF8020069460B48D4
:1028A00000F0CAF914208DF803004FF44060ADF831
:1028B000000003208DF802006946054800F0BCF9CD
:1028C00001221146014800F04FFA08BD000C0140FA
:1028D000001C014010B580210348FEF793F800204A
:1028E0000249088010BD000084950020D00000201F
:1028F00070B50546002400BF00F084F980B90DA131
:102900000E48FDF78CFF044654B13A212046FDF7EE
:102910006AFF044614B1641C204670BD0020FCE729
:10292000052004F0FBF9681E85B2002DE4DC0020D0
:10293000F3E700004950442C00000000849500207B
:1029400008B50121082001F09BFC10208DF8030040
:102950008002ADF8000003208DF8020069463D4872
:1029600000F06AF900224FF480413A4800F0FCF987
:10297000FA2004F0D3F901229103364800F0F4F96B
:102980004FF4FA7004F0CAF9FFF7A4FF32A13448FB
:1029900002F05AF903E04FF4FA7004F0BFF931A1E4
:1029A00031A000F0E1F80028F5D131A12C4802F067
:1029B0004BF92EA131A000F0D7F84FF4FA7004F0D3
:1029C000ADF92AA130A000F0CFF84FF4FA7004F06E
:1029D000A5F931A1224802F037F903E04FF4FA706B
:1029E00004F09CF91FA12FA000F0BEF80028F5D13B
:1029F00030A11B4802F028F903E04FF4FA7004F00C
:102A00008DF918A12FA000F0AFF80028F5D131A161
:102A1000134802F019F903E04FF4FA7004F07EF95C
:102A20002FA131A000F0A0F80028F5D137A10C4863
:102A300002F00AF903E04FF4FA7004F06FF937A1DD
:102A400038A000F091F80028F5D141A1044802F027
:102A5000FBF808BD000C0140302E2041540D0A0047
:102A6000003801404F4B000041540D0A00000000A7
:102A7000312E205253540D0A0000000041542B52B5
:102A800053540D0A0000000041542B434950434C5D
:102A90004F53450D0A000000322E2043574D4F443E
:102AA000450D0A0041542B43574D4F44453D310DD0
:102AB0000A000000332E2041542B43574448435012
:102AC0000D0A000041542B4357444843503D312CDC
:102AD000310D0A00342E2043574A41500D0A0000A0
:102AE000474F54204950000041542B43574A41500E
:102AF0003D22383838383838222C226C69616E67AC
:102B00007469616E63756E220D0A0000352E2043D4
:102B1000495053544152540D0A000000434F4E4E49
:102B20004543540041542B43495053544152543D62
:102B300022544350222C2234372E3233362E323454
:102B40002E323438222C313838330D0A0000000080
:102B5000362E204553503832363620496E6974205F
:102B60004F4B0D0A000000002DE9F04104460D46D0
:102B7000C8262046FDF765FE87B23A4621460D4835
:102B800002F086F80FE000F03DF848B929460A48FF
:102B9000FDF745FE20B1FFF79DFE0020BDE8F08166
:102BA0000A2004F0BBF8301EA6F10101CEB2EAD132
:102BB0000120F3E7004400408495002030B589B03F
:102BC00004460D46FFF786FE2A4608A101A8FDF738
:102BD0004DFC0AA101A8FFF7C7FF20B92A462146EC
:102BE000074802F055F809B030BD000041542B43AE
:102BF000495053454E443D25640D0A003E000000F7
:102C0000004400400A48008808B90120704708487D
:102C1000008808490988884203D1002004490880B7
:102C2000F4E703480088034908800120EEE700002C
:102C3000D0000020D20000202DE9F04102460025FE
:102C40000026002000230024002791F803C00CF088
:102C50000F0591F803C00CF0100CBCF1000F03D06D
:102C600091F802C04CEA050591F800C0BCF1000FD4
:102C700031D0146800202BE04FF0010C0CFA00F367
:102C8000B1F800C00CEA03069E4220D183004FF049
:102C90000F0C0CFA03F7BC4305FA03FC4CEA0404DE
:102CA00091F803C0BCF1280F06D14FF0010C0CFACB
:102CB00000FCC2F814C00AE091F803C0BCF1480F50
:102CC00005D14FF0010C0CFA00FCC2F810C0401CFA
:102CD0000828D1D31460B1F800C0BCF1FF0F34DD77
:102CE000546800202EE000F1080C4FF0010808FAAB
:102CF0000CF3B1F800C00CEA03069E4221D1830018
:102D00004FF00F0C0CFA03F7BC4305FA03FC4CEA36
:102D1000040491F803C0BCF1280F05D100F1080CA0
:102D200008FA0CF8C2F8148091F803C0BCF1480FFF
:102D300007D100F1080C4FF0010808FA0CF8C2F8AE
:102D40001080401C0828CED35460BDE8F0810246B4
:102D5000002093680B400BB1012000E00020704779
:102D600041617047016170470AB1016100E0416152
:102D70007047000010B50446072301222146094888
:102D8000FFF71EFB01210748FFF77BFB00BF022175
:102D90000448FFF7D9FA0028F9D00248FFF7D0FA23
:102DA00010BD0000002401402DE9F84F81460C467B
:102DB0000025002608E04846FFF7DCFF0544052013
:102DC00002F0C4F8701CC6B2A642F4DBB5FBF4FAFC
:102DD000504605F0F5FA07463946094805F0D0FB9C
:102DE0000849009005F00EFA8346074905F0FCFA01
:102DF000824605F0C9FA80461FFA88F0BDE8F88FD0
:102E000000F07F4500C0CE440000C84200BFFEE78E
:102E100008B50121082001F033FA4FF44060ADF805
:102E2000000003208DF8020014208DF8030069468D
:102E30000248FFF701FF02F09FF908BD000C0140B6
:102E400008B50121442001F01BFA0120ADF8000073
:102E500028208DF8030069460648FFF7EDFE1C2088
:102E6000ADF8000048208DF8030069460248FFF7DE
:102E7000E3FE08BD000801400018014010B50446FB
:102E8000012C01D1224908702148007801282AD15B
:102E90002048006801280AD01F48006838B11E4841
:102EA000001F006818B11C4808380068D8B90A200B
:102EB00002F04CF8002016490870164800680128F6
:102EC00000D110BD1448006808B90220F9E7124883
:102ED000001F006808B90320F3E70F4808380068AE
:102EE000A0B90420EDE70B48006878B90A480068EB
:102EF00001280BD10848001F0068012806D10648A8
:102F000008380068012801D1014908700020D8E77D
:102F1000C200002000012142100123424FF4FA7048
:102F200003F0FCFE12E00A48008800F4004068B19B
:102F30000848007838B903F029FD4FF4FA7003F01F
:102F4000EDFE03F02BFD002001490880EBE70000B7
:102F5000C0000020BC9400204FF4FA7003F0DEFEA5
:102F600003E04FF47A7003F0D9FEFAE708B50121C7
:102F7000482001F085F94FF48070ADF80000102072
:102F80008DF8030003208DF8020069460948FFF719
:102F900053FE4FF480710748FFF7E4FE2020ADF8A0
:102FA000000069460448FFF747FE20210248FFF76A
:102FB000D9FE08BD000C01400018014070B5FFF7B4
:102FC000B1FB064605F0FCF90546044905F01AF97F
:102FD00004464FF07E5105F007FA70BD9A99993F6B
:102FE00010B50446207B012802D12068FDF7E3F9E3
:102FF000002020606060A060207310BD02460023A6
:1030000001230DE002F07F000870D2092AB1087890
:1030100040F080000870491C01E0184670475B1CB6
:10302000042BEFDD4FF0FF30F8E770B504460E4695
:103030000025206898B9012020733046FDF78CF9EF
:1030400020602068E0B100206060A66003E00020FE
:10305000216848556D1CA068A842F8D810E00220ED
:10306000207303E00020216848556D1CA068A84229
:10307000F8D800206060A068B04201D20020206033
:1030800070BD00002DE9FF4F83B082468B4691460C
:10309000159C0025002002900F2701904846FDF75F
:1030A000D0FB0FFA80F8B9F1000F03D1012007B06F
:1030B000BDE8F08F08F10200384487B2109808B1DB
:1030C00045F00205129878B145F004051298FDF715
:1030D000B8FBC0B202901398FDF7B3FB014602980B
:1030E000001D0844384487B2119820B1012804D04B
:1030F000022808D104E000BF07E045F00C0504E019
:1031000045F0140501E00220D1E700BF149808B192
:1031100045F02405BAF1000F02D0BBF1000F01D138
:103120000320C4E745F0C0055046FDF78AFB06467C
:103130005846FDF786FB3044001D384487B23946B7
:103140002046FFF772FF206808B90420AFE7394630
:103150002068FDF757FC10216268501C60602068F1
:103160008154D4E90023D118781FFFF747FF00B23C
:1031700001900198002804DA2046FFF731FF05206E
:1031800095E7616801980844606000216268501CFE
:1031900060602068815404216268501C606020686F
:1031A00081544D216268501C606020688154512117
:1031B0006268501C60602068815454216268501C11
:1031C0006060206881546268501C6060206881548F
:1031D00004216268501C6060206881546168481C4A
:1031E0006060206845540698010A6268501C60605F
:1031F000206881540698C1B26268501C60602068E3
:103200008154C8F307216268501C606020688154B3
:103210006268501C6060206800F80280D4E90012E7
:10322000881842464946FDF7E8FA60684044606005
:1032300005F00400B8B30026139808B938A013901D
:103240001298FDF7FEFA86B2310A6268501C60607F
:10325000206881546268501C606020688654D4E9FC
:103260000012881832461299FDF7C7FA6068304498
:1032700060601398FDF7E5FA86B2310A6268501C67
:103280006060206881546268501C606020688654C9
:10329000D4E90012881832461399FDF7AEFA606837
:1032A0003044606000BF05F08000C8B15046FDF7B3
:1032B000C8FA86B2310A6268501C60602068815486
:1032C0006268501C606020688654D4E90012881837
:1032D00032465146FDF791FA60683044606000BFA5
:1032E00005F04000C8B15846FDF7ABFA86B2310A86
:1032F0006268501C6060206881546268501C606085
:1033000020688654D4E90012881832465946FDF7E1
:1033100074FA60683044606000BF0020C7E60000B7
:10332000000000002DE9FF4F83B083461746994601
:10333000139C002500260020029001908046BBF1DE
:10334000000F03D1012007B0BDE8F08F00260AE08E
:103350000498805D232803D00498805D2B2801D138
:103360000220F0E7761C0498805D0028F0D148F038
:103370003008119808B148F0010806EB0900851CD7
:10338000109820B1012804D002280AD105E000BF1E
:1033900009E048F00208AD1C05E048F00408AD1C47
:1033A00001E00320CFE700BF8FB33878022821D196
:1033B0004FF0000A00BF50460AF1010A385C7D2830
:1033C000F9D1AAF1030A0AF1070002900298A9EBC9
:1033D000000AE81CA0EB0A012046FFF726FE206841
:1033E00008B90420AFE7EA1CA2EB0A012068FDF748
:1033F00009FB19E0691D2046FFF717FE206808B990
:103400000420A0E7691D2068FDF7FCFA0CE0FFE747
:10341000691D2046FFF709FE206808B9042092E7DD
:10342000691D2068FDF7EEFA6168481C606020683D
:1034300000F80180D4E9000281182846FFF7DEFD7C
:1034400001900198002804DA2046FFF7C9FD052005
:1034500079E76168019808446060C6F307216268F3
:10346000501C6060206881546268501C6060206855
:103470008654D4E90012881832460499FDF7BDF944
:10348000606830446060109860B14FEA1B21626848
:10349000501C6060206881546268501C6060206825
:1034A00000F802B0C7B1387802280BD1D4E9001275
:1034B00088183946029AFDF72EFA61680298084486
:1034C000606009E0D4E9001288184A463946FDF7E1
:1034D00022FA606848446060002034E770B5054611
:1034E0000C4604212046FFF7A0FD206808B9012002
:1034F00070BD70216268501C606020688154022198
:103500006268501C60602068815429126268501CF7
:103510006060206881546268501C60602068855437
:103520000020E5E770B505460C4604212046FFF76C
:103530007CFD206808B9012070BD62216268501CC2
:1035400060602068815402216268501C60602068BD
:10355000815429126268501C60602068815462683E
:10356000501C6060206885540020E5E72DE9FF5F6E
:103570008046174699460E9C0026B246B346002563
:10358000B8F1000F03D1012004B0BDE8F09F0BE0BB
:1035900057F8250008B90220F6E757F82500FDF78F
:1035A00050F90644681CC5B24D45F1DB09EB4900F2
:1035B000801C00EB060A0AF105012046FFF735FDE5
:1035C000206808B90320DFE782216268501C606030
:1035D00020688154D4E9000281185046FFF70EFD9F
:1035E0000FFA80FBBBF1000F04DA2046FFF7F8FC6E
:1035F0000420C9E76068584460604FEA1821626897
:10360000501C6060206881546268501C60602068B3
:1036100000F80280002524E057F82500FDF711F995
:103620000646C6F307216268501C6060206881541A
:103630006268501C606020688654D4E90023D0186A
:1036400057F825103246FDF7D8F8606830446060BE
:103650000198C1B26268501C606020688154681C87
:10366000C5B24D45D8DB00208EE7F0B504460D46C7
:103670002646012300201060002114E0775C07F04B
:103680007F07106807FB03001060705C00F080008B
:1036900008B9481CF0BDDB01B3F5001F02D36FF081
:1036A0000100F7E7491CA942E8DB4FF0FF30F1E7E2
:1036B0002DE9F84380460C4615461E462F2108F199
:1036C0000600FDF790F807460020009017B901208A
:1036D000BDE8F8837F1C6A46042108F10100FFF76A
:1036E000C4FF2520FCF738FE2060206808B90220BE
:1036F000EEE725212068FDF785F924223946206868
:10370000FDF709F9243700982C3830803188481C9F
:10371000FCF722FE2860286820B92068FCF74BFEE1
:103720000320D5E73288511C2868FDF76BF93288F1
:1037300039462868FDF7EFF80020C9E701464878C8
:10374000022801D001207047887810B188780128BC
:1037500001D1C878F7E7FF20F5E700002DE9FC5F0D
:1037600081460D4614461E46DDE90C8B99F8000093
:1037700000F00F0A002001900AF008000090CAF340
:1037800041008BF8000001AA042109F10100FFF7B4
:103790006CFF4844471C0198022802D30AF001003C
:1037A00010B1FF20BDE8FC9F7878397840EA01200D
:1037B00020802088801C0199884201D9FF20F1E7F0
:1037C00054A1B81CFDF72BF808B10F20EAE79BF8CD
:1037D000000020B101283DD0022877D13BE00098BD
:1037E00008B1FF20DEE72188481CFCF7B5FD286002
:1037F000286808B9FF20D5E72288511C2868FDF702
:1038000001F92288B91C2868FDF785F80198801E07
:103810002188401AA8F80000B8F80010481CFCF7EE
:103820009BFD3060306820B92868FCF7C4FDFF209C
:10383000B8E7B8F80020511C3068FDF7E3F8B8F895
:103840000020B4F800C0BB1C0CEB03013068FDF78E
:1038500062F84FE000BF2088801C0199884201D99E
:10386000FF209FE72088C01C395C2088801C385CC2
:1038700041EA00210E9801800E9808B9FF2091E7D7
:103880002188481CFCF768FD2860286808B9FF20DB
:1038900088E72288511C2868FDF7B4F82288B91CF3
:1038A0002868FDF738F80198001F2188401AA8F809
:1038B0000000B8F80010481CFCF74EFD306030687E
:1038C00028B92868FCF777FDFF206BE710E0B8F80F
:1038D0000020511C3068FDF795F8B8F80020B4F8C6
:1038E00000C03B1D0CEB03013068FDF714F801E04C
:1038F000FF2057E700BF2B212846FCF774FF20B9B3
:1039000023212846FCF76FFF08B1FF204AE700207B
:1039100048E70000246372657100000001464878A2
:10392000022801D001207047887820B9C8780A2879
:1039300001D10020F7E70120F5E701464878022889
:1039400001D001207047887820B9C8780A2801D1B1
:103950000020F7E70120F5E701464878022801D06A
:1039600001207047887820B9C8780A2801D1002042
:10397000F7E70120F5E702465078022801D0012040
:1039800070479078B0EB112F05D1D078CBB2984228
:1039900001D10020F4E70120F2E70000F8B5044669
:1039A000FF2720780511012D01DB0E2D01DD3846A2
:1039B000F8BD032D24D1002000906A460421601C2C
:1039C000FFF753FE2044461C0098022803D32078BA
:1039D00000F0010008B1FF20EAE77078317840EA92
:1039E0000120801C0099884201D9FF20E0E706A150
:1039F000B01CFCF714FF08B10F2700E0032700E01C
:103A00002F463846D4E70000246372657100000039
:103A10000146FF208A78A2B9CA78142A11D10A79FE
:103A200032B1012A05D0022A04D0802A06D103E04F
:103A300000BF00BF002003E0012001E0022000BF22
:103A400000BF7047014601208A781AB9CA781E2A39
:103A500000D10020704770B5044600F023F8FEF74F
:103A6000EBFE05460DB1012070BD00F093FC207007
:103A700000F090FC607000F08DFCA07000F08AFCFB
:103A8000E07000F087FC2071207861780844A1780C
:103A90000844E17808442179884201D00120E3E715
:103AA0000020E1E710B5FEF79BFE00220121074848
:103AB000FFF75AF9122001F049FA01221146034892
:103AC000FFF752F9FEF77EFE10BD0000000C01402A
:103AD00000BFFEE77047000070B5002100230F22F1
:103AE000C47804B3154C246804F4E064C4F5E064BD
:103AF000210AC1F10403CA40447804FA03F184782E
:103B00001440214309010E4C0678A155047804F0B5
:103B10001F050124AC4005786D11AD0005F1E025CD
:103B2000C5F8004109E0047804F01F050124AC4009
:103B3000044D0678761145F8264070BD0CED00E086
:103B400000E400E080E100E002490143024A116024
:103B5000704700000000FA050CED00E030B58BB0B6
:103B600000200790089009900A90012530A033A307
:103B70002FA235A10090404801F066F807A8002167
:103B800002910391CDE9041000912B0228A201912A
:103B90002AA127A0FFF776FA002842D1089A91B20D
:103BA0000798FFF70BF8FA20FEF7A2FE0446002C58
:103BB00033D02046FFF7F2FE02282ED12046FFF731
:103BC000BDFD062823D2DFE800F003090E13181DFF
:103BD0002AA1294801F038F800251DE02CA126482B
:103BE00001F032F818E031A1234801F02DF813E07C
:103BF00037A1214801F028F80EE03DA11E4801F050
:103C000023F809E043A11C4801F01EF804E04CA190
:103C1000194801F019F800BF00BF07A8FFF7E0F945
:103C200003E04EA1144801F00FF828460BB030BD58
:103C3000757365726E616D6500000000706173736D
:103C4000776F7264000000004F6E654E65745F44CC
:103C500065764C696E6B0D0A50524F49443A2025E7
:103C6000732C09415549463A2025732C0944455681
:103C700049443A25730D0A000038014054697073B5
:103C80003A09C1ACBDD3B3C9B9A60D0A0000000002
:103C90005741524E3A09C1ACBDD3CAA7B0DCA3BA52
:103CA000D0ADD2E9B4EDCEF30D0A00005741524E2B
:103CB0003A09C1ACBDD3CAA7B0DCA3BAB7C7B7A88D
:103CC000B5C4636C69656E7469640D0A0000000018
:103CD0005741524E3A09C1ACBDD3CAA7B0DCA3BA12
:103CE000B7FECEF1C6F7CAA7B0DC0D0A000000008F
:103CF0005741524E3A09C1ACBDD3CAA7B0DCA3BAF2
:103D0000D3C3BBA7C3FBBBF2C3DCC2EBB4EDCEF3A2
:103D10000D0A00005741524E3A09C1ACBDD3CAA7A3
:103D2000B0DCA3BAB7C7B7A8C1B4BDD328B1C8C85F
:103D3000E7746F6B656EB7C7B7A8290D0A0000005E
:103D40004552523A09C1ACBDD3CAA7B0DCA3BACE22
:103D5000B4D6AAB4EDCEF30D0A0000005741524E7E
:103D60003A094D5154545F5061636B6574436F6EF3
:103D70006E656374204661696C65640D0A0000001D
:103D800070B588B005460C4600200490059006905A
:103D9000079023462A4610A1174800F055FF2046F9
:103DA000FCF74FFD064604A801210022009233468D
:103DB000CDE901210390224629460A20FFF7B2FAF5
:103DC00038B9059A91B20498FEF7F8FE04A8FFF7F7
:103DD00007F908B070BD00005075626C6973682007
:103DE000546F7069633A2025732C204D73673A2015
:103DF00025730D0A00000000003801402DE9F04F46
:103E00008FB0824600200B900C900D900E900A907F
:103E1000099008900790002706900025002483460B
:103E20005046FFF7BBFD0746F81E0D286FD2DFE8AE
:103E300000F01C6F7892AED3B7D3C5D3D3D30700AD
:103E400007AB0AAA09A95046FFF732FC05465DB93F
:103E5000BDF81C00009079A18148DDE9092300F03C
:103E6000F3FE0BA8FFF7BCF8B9E07E4806A907AA45
:103E70000AABCDE90021029008AA09A95046FFF734
:103E80006DFC0546002D41D1BDF81C000A99CDE915
:103E90000010BDF8203074A17148099A00F0D4FEDA
:103EA0000A9800F0F3FF8046B8F1000F08D100F047
:103EB000C7FF02467BA10290694800F0C5FE22E0E0
:103EC0007DA1404600F0C2FF81467DA1404600F042
:103ED000BDFF0646D9F81400012803D100207A4915
:103EE000086010E0D9F8140018B90120764908607C
:103EF00009E07069012802D102F050FD03E0706909
:103F000008B902F043FD404600F06EFF67E063E051
:103F10005046FFF703FD18B96CA1514800F094FE1C
:103F20005DE05046FFF718FDA0B970A14C4800F0C5
:103F30008BFE0BA90A20FFF7F5FA58B971A1484882
:103F400000F082FE0C9A91B20B98FEF737FE0BA898
:103F5000FFF746F843E0434801885046FFF70BFD62
:103F6000A0B96EA13E4800F06FFE0BA90A20FFF732
:103F7000B5FA58B96FA13A4800F066FE0C9A91B2B2
:103F80000B98FEF71BFE0BA8FFF72AF827E0504618
:103F9000FFF7D3FC18B96EA1314800F055FE1EE0C2
:103FA0005046FFF735FD20B96FA12D4800F04CFEBB
:103FB00003E074A12A4800F047FE10E05046FFF7E6
:103FC00041FD20B976A1264800F03EFE03E07BA12A
:103FD000234800F039FE02E04FF0FF3500BF00BF7C
:103FE000FEF778FC681C10B90FB0BDE8F08F7D219A
:103FF0000A98FCF7F8FB0446A4B1681C90B1641C55
:1040000006E014F8012B58460BF1010B03A90A54E2
:104010002078302802DB20783928F2DD03A8FCF76D
:10402000D5FB83460F2F01D0032F05D10998FCF74C
:10403000C2F90A98FCF7BFF900BFD5E7636D646960
:10404000643A2025732C207265713A2025732C2048
:104050007265715F6C656E3A2025640D0A00000080
:1040600000380140D4000020746F7069633A202545
:10407000732C20746F7069635F6C656E3A202564E1
:104080002C207061796C6F61643A2025732C20704C
:1040900061796C6F61645F6C656E3A2025640D0A0E
:1040A000000000004572726F72206265666F726573
:1040B000203A5B25735D0A004C45445F535700006E
:1040C00072656C6179000000A081214254697073AF
:1040D0003A094D515454205075626C6973682053ED
:1040E000656E64204F4B0D0A000000005469707328
:1040F0003A09526576205075626C6973685265633F
:104100000D0A0000546970733A0953656E642050BB
:1041100075626C69736852656C0D0A00546970733E
:104120003A09526576205075626C69736852656C05
:104130000D0A0000546970733A0953656E6420508B
:1041400075626C697368436F6D700D0A0000000042
:10415000546970733A09526576205075626C6973C0
:1041600068436F6D700D0A00546970733A094D51C0
:10417000545420537562736372696265204F4B0D0E
:104180000A000000546970733A094D515454205389
:104190007562736372696265204572720D0A000070
:1041A000546970733A094D51545420556E537562D9
:1041B000736372696265204F4B0D0A005469707316
:1041C0003A094D51545420556E53756273637269A8
:1041D0006265204572720D0A0000000070B586B05D
:1041E00004460D460026002002900390049005909E
:1041F00007E054F826200DA1124800F025FD701CA0
:10420000C6B2AE42F5DB02A82B4622460221009040
:104210001420FFF7ABF938B9039A91B20298FEF770
:10422000CDFC02A8FEF7DCFE06B070BD53756273CC
:10423000637269626520546F7069633A2025730D5B
:104240000A0000000038014001460020034A50687F
:1042500020F44040084350607047000000100240C6
:1042600029B1064AD2690243044BDA6104E0034AE9
:10427000D2698243014BDA617047000000100240AE
:1042800029B1064A92690243044B9A6104E0034A49
:1042900092698243014B9A6170470000001002400E
:1042A00029B1064AD2680243044BDA6004E0034AAB
:1042B000D2688243014BDA60704700000010024070
:1042C00030B500210022002400232D4D6D6805F03B
:1042D0000C0121B1042905D0082923D105E0294D7D
:1042E000056022E0274D05601FE0254D6D6805F44F
:1042F0007012234D6D6805F48034022505EB92425F
:104300001CB9214D554305600BE01D4D6D6805F44A
:1043100000351DB11C4D5543056002E0194D554354
:10432000056002E0174D056000BF00BF144D6D68C9
:1043300005F0F0010909154D6B5C0568DD4045602D
:104340000F4D6D6805F4E061090A104D6B5C45681E
:10435000DD4085600A4D6D6805F46051C90A0B4D5A
:104360006B5C4568DD40C560054D6D6805F44041F6
:10437000890B074D6B5CC568B5FBF3F5056130BD76
:104380000010024000127A0000093D0000000020E9
:104390001000002070B50025002424E000BF01219A
:1043A0001348FEF7D4FC0028F9D0282000F0EEFDD9
:1043B00001210F48FEF7CBFC01280DD100BF0121E0
:1043C0000B48FEF7C4FC0128F9D0C4F10701012015
:1043D0008840C0B2054304E0C4F1070101208840D1
:1043E0008543601CC4B2082CD8DB284670BD000091
:1043F000000C0140002410E00020FEF73FFD0446C1
:10440000012C07D102F0C2FA41F2883002F086FC9A
:1044100002F0C4FA142002F081FCEDE708B5012097
:10442000ADF800008DF8020004208DF80300694605
:104430000148FEF701FC08BD001C014008B5012041
:10444000ADF8000010208DF8030003208DF8020065
:1044500069460248FEF7F0FB08BD0000001C014061
:1044600008B501218020FFF70BFF0220ADF8000006
:1044700010208DF8030003208DF8020069460548DE
:10448000FEF7DAFB0120ADF8000069460148FEF7AF
:10449000D3FB08BD001C014010B502210B48FEF7FC
:1044A0005FFCFFF7CBFF01210848FEF759FC142001
:1044B00000F06CFD02210548FEF754FC142000F0CA
:1044C00065FD02210148FEF74BFC10BD001C0140B8
:1044D00010B502210B48FEF743FCFFF7AFFF0121A7
:1044E0000848FEF73FFC142000F050FD022105486B
:1044F000FEF738FC142000F049FD02210148FEF7C8
:104500002FFC10BD001C014070B505460024FFF7CC
:1045100085FF00261AE002211148FEF721FC142035
:1045200000F034FD02210E48FEF71CFC4FF6FF7030
:1045300000EA440401210A48FEF709FC08B1601CA6
:1045400084B2142000F022FD701CC6B2082EE2DBFB
:1045500015B9FFF7BDFF01E0FFF79EFF204670BDD4
:10456000001C014070B50446FFF768FF02211548A2
:10457000FEF7F6FB00251FE0E00920B101211148FC
:10458000FEF7F0FB03E001210E48FEF7E9FB6006B1
:10459000040E142000F0FAFC02210A48FEF7E2FBA8
:1045A000142000F0F3FC02210648FEF7D9FB14208A
:1045B00000F0ECFC681CC5B2082DDDDB142000F017
:1045C000E5FC70BD001C014010B5FFF737FF01216D
:1045D0000A48FEF7C7FB02210848FEF7C3FB142078
:1045E00000F0D4FC01210548FEF7BAFB142000F0CE
:1045F000CDFC02210148FEF7B3FB10BD001C0140B9
:1046000010B5FFF71BFF02210A48FEF7A9FB0121A5
:104610000848FEF7A5FB142000F0B8FC022105486D
:10462000FEF7A0FB01210348FEF79CFB142000F0DD
:10463000ADFC10BD001C014010B50024FFF7EEFEDC
:1046400001211148FEF78EFB0A2000F09FFC022199
:104650000D48FEF787FB0A2000F098FC07E0601C7D
:10466000C4B2FA2C03DDFFF7CBFF012010BD0121FE
:104670000548FEF76CFB0028F1D102210248FEF745
:104680006FFB0020F2E70000001C014010B5FFF7AF
:10469000E7FE0321202000F025F810BD70B5FFF7DC
:1046A00093FFB120FFF75EFFFFF7C6FF0120FFF782
:1046B0002BFF044624020120FFF726FF04440120BB
:1046C000FFF722FFC5B200BF24020120FFF71CFF45
:1046D000044424020020FFF717FF0444FFF790FF73
:1046E000204670BD70B505460C46FFF76DFFB02043
:1046F000FFF738FFFFF7A0FF2846FFF733FFFFF76C
:104700009BFF2046FFF72EFFFFF796FFFFF778FF8E
:10471000642000F01BFC70BD10B500F001F810BD66
:104720000CB50020019000903348006840F48030C0
:104730003149086000BF3048006800F40030009044
:104740000198401C0190009818B90198B0F5A06F2D
:10475000F1D12948006800F4003010B10120009028
:1047600001E0002000900098012843D12348006810
:1047700040F01000214908600846006820F003005E
:1047800008600846006840F0020008601A48406867
:10479000194948600846406848600846406840F447
:1047A000806048600846406820F47C1048600846F5
:1047B000406840F4E81048600846006840F08070A7
:1047C000086000BF0C48006800F000700028F9D0B5
:1047D0000948406820F003000749486008464068DF
:1047E00040F00200486000BF0348406800F00C0041
:1047F0000828F9D10CBD0000001002400020024042
:10480000042808D14FF0E021096941F004014FF07C
:10481000E022116107E04FF0E021096921F0040175
:104820004FF0E0221161704710B502F02BFD012816
:1048300001D002F0DDFC10BD70B505460420FFF785
:10484000DFFF104800681049B0FBF1F00F49087015
:104850000C4800680C49B0FBF1F44FF47A70444303
:1048600001200B4908804FF0E020006940F0020071
:104870004FF0E021086108464461006940F0010002
:10488000086170BD1400002040420F00B8000020F5
:10489000BA00002010B51348006840F0010011492B
:1048A000086008464068104908400E4948600846BC
:1048B00000680E4908400B4908600846006820F46B
:1048C000802008600846406820F4FE0048604FF4ED
:1048D0001F008860FFF720FF4FF000600449086068
:1048E00010BD0000001002400000FFF8FFFFF6FEC0
:1048F00008ED00E010B540F225511D4800F086F8A3
:1049000010B31B4800F03EF9C4B21A48008800F406
:104910000040C8B91748008800F4804060B10A2CF4
:1049200003D000201349088020E01248008840F49A
:1049300000401049088019E00D2C06D10D48008870
:1049400040F480400B49088010E00A480088C0F31A
:104950000D0009490C5407480088401C054908808F
:1049600008460088C72801DD0020088010BD00002F
:1049700000380140C0000020BC94002010B540F277
:1049800025510E4800F042F8B0B10D48008880284B
:1049900002D300200A4908800848001D0088C1B2DF
:1049A000074802880088401C054B18800548815440
:1049B0002021024800F008F810BD0000004400402B
:1049C000D00000208495002001F40072B2F5007F31
:1049D00000D100BFCA430280704721B1828942F4EE
:1049E0000052828104E082894DF6FF731A40828171
:1049F000704702460020B1F5007F00D100BF138848
:104A00000B400BB1012000E00020704770B502465A
:104A1000002400230025002040F66A16B14200D190
:104A200000BFC1F3421501F01F03012606FA03F38C
:104A3000012D02D19689334006E0022D02D1168A5B
:104A4000334001E0968A33400C12012606FA04F442
:104A50001688344013B10CB1012000E0002070BD75
:104A6000F0B50346002400260025002040F66A1712
:104A7000B94200D100BF1846C1F3421401F01F062D
:104A8000012707FA06F5012C01D10C3004E0022CB5
:104A900001D1103000E014301AB107682F430760CD
:104AA00002E00768AF430760F0BD00002DE9F04762
:104AB00086B005460E460024A24600BFA146002748
:104AC000B08900B100BF2F462C8A4CF6FF7004401D
:104AD000F08804432C82AC894EF6F3100440B08871
:104AE00031890843718908430443AC81AC8A4FF68D
:104AF000FF400440B0890443AC8201A8FFF7E0FB0B
:104B00001F48874202D1DDF810A001E0DDF80CA0BB
:104B1000A88900F4004040B10AEBCA0000EB0A107B
:104B200031684900B0FBF1F807E00AEBCA0000EB7E
:104B30000A1031688900B0FBF1F86420B8FBF0F08E
:104B400004012009642101FB1089A88900F40040B8
:104B500040B1322000EBC900B0FBF1F000F00700DB
:104B6000044308E0322000EB09106421B0FBF1F0AF
:104B700000F00F0004432C8106B0BDE8F087000070
:104B80000038014001468888C0F308007047C1F32F
:104B900008028280704700BFFEE7000010B586B0B3
:104BA000044601210420FFF76BFB01214804FFF7B5
:104BB00057FB18208DF817000420ADF814000320CF
:104BC0008DF8160005A91E48FEF736F804208DF86A
:104BD00017000820ADF8140003208DF8160005A971
:104BE0001748FEF729F801940020ADF810000C20BA
:104BF000ADF80E000020ADF80C00ADF80A00ADF8DD
:104C0000080001A90F48FFF751FF01210D48FFF7E8
:104C1000E4FE012240F225510A48FFF721FF262039
:104C20008DF8000001208DF8030000208DF80100B0
:104C30008DF802006846FEF74FFF06B010BD000079
:104C400000080140004400400FB430B5CBB0054629
:104C500001AC50A800904FF4947101A8009B4F9AAA
:104C6000FBF7DEFB002000900BE014F8011B284648
:104C7000FFF78DFF00BF40212846FFF7BAFE00284E
:104C8000F9D020780028F0D14BB030BC5DF814FB8F
:104C90002DE9F04107460C46154600260DE014F8B4
:104CA000011B3846FFF773FF00BF40213846FFF76E
:104CB000A0FE0028F9D0701C86B2AE42EFDBBDE842
:104CC000F081490050EAC12018BF04204A0D18BFE6
:104CD00040F0010040F2FF72B2EB515F08BF40F0BC
:104CE0000200012808BF052070472DE9F0414F1E42
:104CF00000EBC7010446D1E9000115461E4637F016
:104D000006020DD02A46334602F0DEFE7F1E04EB7B
:104D1000C703D3E9002302F041FC37F00602F1D1CA
:104D2000022F25D0042F13D0062F18BFBDE8F08125
:104D30002A46334602F0C8FED4E90A2302F02EFCCC
:104D40002A46334602F0C0FED4E9082302F026FCCE
:104D50002A46334602F0B8FED4E9062302F01EFCD0
:104D60002A46334602F0B0FED4E9042302F016FCD2
:104D70002A46334602F0A8FED4E9022302F00EFCD4
:104D80002A46334602F0A0FED4E90023BDE8F041F4
:104D900002F004BC002213461046014902F0BABCDE
:104DA0000000F03F02F0FABB002213461046114605
:104DB00002F0B0BC40F2013200204FF0E04103F0BD
:104DC0008ABC0000024A0020110703F084BC0000E6
:104DD00001FDFFFF30380A2801D201207047002072
:104DE000704700BF7047000070B5044622E0256898
:104DF000A08900F4807020B9A06810B1A068FFF706
:104E0000F3FFA08900F4807028B9206918B10B491C
:104E1000206909688847A08900F4007028B9206AD1
:104E200018B10649206A096888472046034909687D
:104E300088472C46002CDAD170BD0000CC00002041
:104E40000148006870470000C400002070B50546A6
:104E50000E46AC6800E024682CB13146206A00F0B0
:104E60004FF80028F7D1204670BD000010B528206B
:104E700005490968884704461CB128212046FBF7EC
:104E8000E3FD204610BD0000C800002010B5044618
:104E900000221146204600F001F810BD2DE9F04730
:104EA00080460D4616460024FFF7E0FF0746002027
:104EB000124908600FB9BDE8F087404601F076FD61
:104EC00081464946384600F0E7FC044624B9384696
:104ED000FFF78AFF0020EEE766B1204601F066FD8D
:104EE0000446207830B13846FFF77EFF034804605F
:104EF0000020E0E705B12C603846DCE7C400002064
:104F000070B504460D462CB9AC4201D0012070BDED
:104F10000020FCE70DB90120F9E705E0207808B989
:104F20000020F4E7641C6D1C2078FBF76BFA064642
:104F30002878FBF767FA8642F0D02078FBF762FA10
:104F400006462878FBF75EFA301AE0E770B50446AB
:104F500002F098F9012810D00B480088844206D34B
:104F600009480088B4FBF0F5284601F0D7FE064852
:104F70000088B4FBF0F100FB11444FF47A7104FB9C
:104F800001F000F003F870BDBA00002070B50346D0
:104F900000224FF0E02675690D4E367803FB06F4CB
:104FA0004FF0E026B16910E04FF0E026B06988428A
:104FB0000BD0884202D20E1A324402E02E1A0E445E
:104FC00032440146A24200D300E0EDE700BF70BDCD
:104FD000B800002000BF054A128802F04002002AF3
:104FE000F9D0C2B2014B1B1D1A8070470038014036
:104FF00010B54FF480610C48FDF7B2FE00F026F8C2
:105000004FF400610848FDF7ADFE00F01FF84FF4C3
:1050100000610548FDF7A4FE00F018F84FF4806128
:105020000148FDF79FFE10BD000C014070B504461D
:10503000FDF7EEFE00F082F8204600F04DF800F09B
:10504000B1F8054600F098F8284670BD002001E050
:10505000411CC8B20A28FBDB7047000010B54FF4B2
:1050600080610A48FDF77EFEFFF7F0FF4FF4006114
:105070000648FDF777FEFFF7E9FF4FF400610348AC
:10508000FDF76EFEFFF7E2FF10BD0000000C0140CF
:1050900070B50024002519E06006040E4FF400618D
:1050A0000C48FDF75FFEFFF7D1FF4FF48061094820
:1050B000FDF74DFE08B1601CC4B24FF40061054815
:1050C000FDF74EFEFFF7C2FF681CC5B2082DE3DBFB
:1050D000204670BD000C014070B50446002528E054
:1050E00004F0800028B14FF480611348FDF73AFEC8
:1050F00004E04FF480611048FDF732FEFFF7A6FF91
:105100004FF400610C48FDF72DFEFFF79FFF4FF4B1
:1051100000610948FDF724FE072D04D14FF480619A
:105120000548FDF71FFE6006040EFFF78FFF681CA1
:10513000C5B2082DD4DB70BD000C014010B54FF492
:1051400080610C48FDF70EFE4FF400610948FDF741
:1051500009FEFFF77BFF4FF480610648FDF700FE74
:10516000FFF774FF4FF400610248FDF7F9FDFFF708
:105170006DFF10BD000C014010B54FF48061084870
:10518000FDF7EEFD4FF400610548FDF7EBFDFFF77D
:105190005DFF4FF480610248FDF7E4FD10BD0000A3
:1051A000000C014010B54FF480610F48FDF7DAFDA7
:1051B000FFF74CFF4FF400610B48FDF7D3FDFFF7FD
:1051C00045FF4FF480610848FDF7C1FD08B1012497
:1051D00000E000244FF400610348FDF7C1FDFFF734
:1051E00035FF204610BD0000000C01401CB54820D2
:1051F000FFF722FB0124FDF7B3FA0A48052100233B
:105200006202CDE9001008A10B4802F00BF8044639
:10521000012C02D101F052FE02E04FF0FF301CBD24
:1052200000BFFEE7400000204170705461736B4383
:105230007265617465000000312500082DE9F047B2
:1052400005460C4620785B2804D0264804600020E0
:10525000BDE8F0870520E860601C01F0A7FB04466C
:1052600020785D2801D1601CF2E7FFF7FFFD0646BC
:10527000A860A86808B90020EAE7204601F096FB7C
:1052800080464146304600F007FB074601F08EFBA2
:1052900004460CB90020DBE717E0FFF7E7FD071E27
:1052A00000D1D5E737607E603E46601C01F07EFB92
:1052B00081464946304600F0EFFA804601F076FB21
:1052C00004460CB90020C3E700BF20782C28E4D0A6
:1052D00020785D2801D1601CBAE7024804600020F4
:1052E000B6E70000C40000200146002208783028FC
:1052F00006DB0878392803DC08783038024415E0EA
:105300000878412806DB0878462803DC0878373817
:1053100002440BE00878612806DB0878662803DC85
:1053200008785738024401E0002070471201491CF8
:105330000878302806DB0878392803DC087830380C
:10534000024415E00878412806DB0878462803DC8B
:105350000878373802440BE00878612806DB0878C3
:10536000662803DC08785738024401E00020DCE7B7
:105370001201491C0878302806DB0878392803DC3C
:1053800008783038024415E00878412806DB0878B0
:10539000462803DC0878373802440BE00878612897
:1053A00006DB0878662803DC08785738024401E0F9
:1053B0000020BAE71201491C0878302806DB08787B
:1053C000392803DC08783038024415E00878412891
:1053D00006DB0878462803DC0878373802440BE0FF
:1053E0000878612806DB0878662803DC08785738D7
:1053F000024401E0002098E7104696E72DE9F04FBF
:105400008BB083468A460020044605460026674F37
:105410000021884689460990012008909AF80000EA
:105420002D2802D1624F0AF1010A9AF800003028B3
:1054300001D10AF1010A9AF80000312822DB9AF81A
:10544000000039281EDC00BF1AF8011BA1F1300052
:1054500002F0E7FA0022574BCDE906012046294623
:1054600002F032FBCDE90401DDE9062302F096F8F3
:1054700004460D469AF80000302803DB9AF8000035
:105480003928E1DD9AF800002E2830D19AF8010081
:1054900030282CDB9AF80100392828DC0AF1010AAF
:1054A00000BF1AF8011BA1F1300002F0BAFA002285
:1054B000404BCDE906012046294602F005FBCDE927
:1054C0000401DDE9062302F069F804460D460022D6
:1054D000364B4046494602F01DFD804689469AF803
:1054E0000000302803DB9AF800003928D9DD9AF84B
:1054F0000000652803D09AF80000452823D10AF15E
:10550000010A9AF800002B2802D10AF1010A08E0EA
:105510009AF800002D2804D14FF0FF3008900AF1CE
:10552000010A08E01AF8010B3038099901EB8101F2
:1055300000EB410009909AF80000302803DB9AF84C
:1055400000003928EEDDDDE9082101FB02F002F060
:1055500068FA42464B46CDE9000102F01FF80246C8
:105560000B46CDE902010020124900F0F3F9224672
:105570002B46CDE906013046394602F0A5FACDE9C1
:105580000401DDE9062302F09FFA04460D46CBE94B
:1055900006452046294602F015FACBF814000320F0
:1055A000CBF80C0050460BB0BDE8F08F0000F03F88
:1055B0000000F0BF000024402DE9F04706460C46ED
:1055C00020787B2804D0404804600020BDE8F087A4
:1055D0000620F060601C01F0E9F9044620787D287F
:1055E00001D1601CF2E7FFF741FC0546B060B068EE
:1055F00008B90020EAE7204601F0D8F98046414684
:10560000284600F063F8074601F0D0F904460CB9CB
:105610000020DBE7286928620020286120783A28EA
:1056200003D0294804600020D0E7601C01F0BEF9D7
:1056300080464146284600F02FF9074601F0B6F9AA
:1056400004460CB90020C1E731E0FFF70FFC071E4C
:1056500000D1BBE72F607D603D46601C01F0A6F9DC
:1056600081464946284600F031F8804601F09EF90F
:1056700004460CB90020A9E72869286200202861A7
:1056800020783A2803D01048046000209EE7601C70
:1056900001F08CF981464946284600F0FDF8804625
:1056A00001F084F904460CB900208FE700BF207890
:1056B0002C28CAD020787D2801D1601C86E70248BA
:1056C0000460002082E70000C40000202DE9F05FA4
:1056D0008346884608F10104002798F80000222834
:1056E00005D06A48C0F800800020BDE8F09F04E0C3
:1056F00014F8011B5C2900D1641C2078222804D0F6
:10570000207810B1781C071EF2D1781C6049096816
:1057100088478146B9F1000F01D10020E5E708F183
:1057200001044D469EE020785C2804D014F8010B5B
:1057300005F8010B96E0641C2078722818D006DC6E
:10574000622809D066280BD06E287DD10CE0742821
:1057500012D07528F9D113E0082005F8010B7FE07D
:105760000C2005F8010B7BE00A2005F8010B77E01F
:105770000D2005F8010B73E0092005F8010B6FE01F
:10578000601CFFF7B1FD0646241DB6F55C4F02D341
:10579000B6F5604F00D306B962E0B6F5584F1CD39A
:1057A000B6F55C4F19D260785C2802D1A0787528D4
:1057B00000D055E0E01CFFF797FD8246A41DBAF526
:1057C0005C4F02D3BAF5604F00D349E0C6F309013C
:1057D000504661F39F2000F580360427802E01D2C9
:1057E000012708E0B6F5006F01D2022703E0B6F505
:1057F000803F00D203273D44012F20D0022F15D037
:10580000032F0AD0042F24D106F0BF0040F08001FE
:10581000681E05460170B60900BF06F0BF0040F0E3
:105820008001681E05460170B60900BF06F0BF0082
:1058300040F08001681E05460170B60900BF15489A
:10584000C05D3043C1B200E006E0681E054601704D
:1058500000BF00BF3D4403E0207805F8010B00BF06
:1058600000BF641C2078222803D0207800287FF411
:105870005AAF002028702078222800D1641CCBF871
:1058800010900420CBF80C0020462EE7C400002026
:10589000C80000206C87000870B505460C460CB99E
:1058A000002070BD042224A12046FAF7E9FF18B9B0
:1058B0000220E860201DF4E7052221A12046FAF726
:1058C000DFFF18B90020E860601DEAE704221EA18E
:1058D0002046FAF7D5FF20B90120E8606861201D55
:1058E000DFE72078222804D121462846FFF7EEFE84
:1058F000D7E720782D2805D02078302807DB2078BE
:10590000392804DC21462846FFF778FDC9E72078CE
:105910005B2804D121462846FFF790FCC1E7207898
:105920007B2804D121462846FFF746FEB9E7084800
:1059300004600020B5E700006E756C6C000000008C
:1059400066616C736500000074727565000000008C
:10595000C40000202DE9F04D1D460C4698B01746B6
:1059600021F0004123F00043002814BF4FF0010C48
:105970004FF0000C0CEB440CFE4A0CEB02064FEA15
:10598000620C66452BD33E0018BF012606EB450688
:105990001644F94A964222D3F84A53EA070C02D039
:1059A000944205D148B918B000201146BDE8F08DE9
:1059B000002808BF4FF0000C01D04FF0010C0CEB99
:1059C000440212F5001F0AD8002F14BF4FF0010C3B
:1059D0004FF0000C0CEB450212F5001F07D918B070
:1059E0003A462B462146BDE8F04DFFF7DBB90022D1
:1059F000DFF88CA3002CB8BF534526DADFF884C348
:105A00006345A8BF022220DADFF870C39C451CDC86
:105A1000DFF874C30CEB235CBCF1140F08DDCCF190
:105A2000340627FA06FC0CFA06F6BE420DD108E051
:105A30005FB9CCF1140623FA06FC0CFA06F69E4276
:105A400003D10CF00102C2F1020251EA000C19D19B
:105A5000002D17DA002C18BF022A01D0012A07D026
:105A60000220FBF77EF818B0BDE8F04DFFF792B9C1
:105A70000220FBF776F8FFF78DF918B081F00041AE
:105A8000BDE8F08DB7F1000C6CD1534525D104F180
:105A9000804212F5801201BF00280020B74918B0DB
:105AA00008BFBDE8F08DB548884207DC002DA1BFD6
:105AB0006046294618B0BDE8F08D07E0281E05DADB
:105AC00080F0004118B06046BDE8F08DAF497944E0
:105AD000D1E9000118B0BDE8F08DDFF8A0C2634540
