:020000040800F2
:10000000789C0020190300081D3B0008B92E000849
:10001000193B0008472800081F4B0008000000009B
:100020000000000000000000000000008102000845
:10003000DD28000800000000C5020008B1470008E4
:1000400033030008330300083303000833030008B8
:1000500033030008330300083303000833030008A8
:100060003303000833030008330300083303000898
:100070003303000833030008330300083303000888
:100080003303000833030008330300083303000878
:100090003303000833030008330300083303000868
:1000A0003303000833030008330300083303000858
:1000B0003303000833030008330300083303000848
:1000C0003303000833030008330300083303000838
:1000D000330300087D480008054900083303000881
:1000E0003303000833030008330300083303000818
:1000F0003303000833030008330300083303000808
:1001000033030008330300083303000833030008F7
:1001100033030008330300083303000833030008E7
:1001200033030008330300083303000833030008D7
:1001300000F002F800F094F80AA090E8000C824465
:100140008344AAF10107DA4501D100F089F8AFF242
:10015000090EBAE80F0013F0010F18BFFB1A43F0A5
:100160000103184798880000B8880000103A24BF9F
:1001700078C878C1FAD8520724BF30C830C144BF0C
:1001800004680C607047000000230024002500264E
:10019000103A28BF78C1FBD8520728BF30C148BFEA
:1001A0000B6070476E2900F04D85702900F03F828A
:1001B000662908F0CE82652908F0CB82672908F00D
:1001C000C882612908F0C78203681B0A28BF41F072
:1001D0008001692900F0B081642900F0AD817529A2
:1001E00000F0AA816F2901F05C80782900F00B8271
:1001F000E92900F0F787E42900F0F487F52900F0F9
:10020000F187EF2901F05980F82900F00A8203688C
:10021000DB0928BF41F08001632900F0668773295C
:1002200000F06B87E32901F0BB82F32901F0C08263
:10023000002070471FB59DE8030000F057FC01F057
:1002400083F804000020002107F0AAF9401C606038
:100250000020002107F0BAF9E0601FBD10B510BD05
:1002600001F098FB1146FFF7E5FF04F0BBFF01F03A
:10027000C4FB03B4FFF7F2FF03BC04F094FD0000DD
:10028000224B19680868B0E8F00F80F30988BFF3C3
:100290006F8F4FF0000080F311884EF00D0E704705
:1002A0000000000006480068006880F3088862B615
:1002B00061B6BFF34F8FBFF36F8F00DF00BF00BF8A
:1002C00008ED00E0EFF30980BFF36F8F0F4B1A6862
:1002D00020E9F00F106008B54FF0500080F311884E
:1002E000BFF34F8FBFF36F8F06F06EFE4FF000002D
:1002F00080F31188BDE8084019680868B0E8F00F7D
:1003000080F30988BFF36F8F704700BF6C00002037
:10031000EFF305807047000009488047094800470F
:10032000FEE7FEE7FEE7FEE7FEE7FEE7FEE7FEE7A5
:10033000FEE7FEE704480549054A064B7047000002
:100340001D4800083101000878960020789C0020A4
:10035000789800207898002070B5064600F0A6FB3B
:10036000056806F10B0020F00704B4429CBF002092
:1003700070BD2B466A68BAB11068A04210D304F170
:10038000080188423CBF5068586007D35168101973
:1003900041601168091B016058601460101D70BD38
:1003A00013465268002AE7D12146284600F08AFB0E
:1003B0000028DED170BD70B50446051F00F076FB45
:1003C0000068002C14BF446870BD002C18BFAC42FC
:1003D0003CBF20466468F8D301680A18AA4218BFD7
:1003E000456003D12A680546114401602868411917
:1003F000A1421CBF6C6070BD6168696021680844DF
:10040000286070BD10B5044600F048FB0068005D30
:10041000C00602D504F1200010BD204610BD00002A
:100420007CB51D4616460C00009001D02044401EAD
:10043000074B7B442A4669460190304600F02BFE6C
:1004400005461CB10020694600F038FE28467CBDF8
:10045000910C00000FB4044910B503AA029800F0F3
:1004600051FE10BC5DF814FBD00000200FB41CB589
:10047000084B06AA7B4469460090059800F00BFEE5
:1004800004460020694600F019FE20461CBC5DF8B9
:1004900014FB0000450C000070B504468569006837
:1004A000C10601D5302600E02026C00707D070BD68
:1004B000D4E9012130469047206A401C20626D1E1D
:1004C000F6D570BD70B5044685690078C00707D1C0
:1004D00070BDD4E9012120209047206A401C206291
:1004E0006D1EF6D570BD70B50C460546012A05D0C7
:1004F0002878800600D5EA69002302E0012305E0A0
:100500005B1C934202D2E05C0028F9D1A869E6188E
:10051000C01AA861286A184428622846FFF7BCFF61
:1005200004E0D5E9012114F8010B9047B442F8D357
:100530002846FFF7C7FF70BD2DE9F04106460024AD
:1005400010687529314616A510D000F010FB002860
:1005500002DA404213A507E031688A0701D512A5E7
:1005600002E0490704D511A5012401E000F008FBD1
:1005700000210A2206F1240709E0B0FBF2FCB0FBDF
:10058000F2F302FB1C00303078541846491C002856
:10059000F3D123462A463046BDE8F04100F0F9BACF
:1005A000000000002D0000002B00000020000000D3
:1005B000F0B40D460188090502D5214C7C4402E0C7
:1005C0001F4C7C440E34002100F1240608E002F0A8
:1005D0000F071209E75D42EA03721B097754491CB1
:1005E00052EA0307F3D102780023120704D5702DD5
:1005F00006D009B1022311342246F0BC00F0C9BA7A
:1006000001231034F8E770B504460D462146106802
:1006100000F0B6FA024629462046BDE870400023A5
:10062000C6E7D21D22F00703D3E90023C0E7036821
:10063000126843F0200303600823C3610023B7E777
:100640009B8200002DE9F05F894604464FF0000AC6
:10065000DFF874B1FB44C0F820A02046E168884769
:10066000002874D0252806D0D4E901219047206ABB
:10067000401C2062F1E700265F462046E16888477B
:100680002028054607DB312D05D2781910F8200CFB
:1006900008B10643F1E7B00701D526F00406C4F817
:1006A0001CA00027C4F818A02A2D09D0284604F061
:1006B00073FB38B304EB8708303DC8F8185019E0D5
:1006C00059F8041B204604EB87029161E1688847D2
:1006D000012F054618D1E069002820DA26F020060F
:1006E0001DE0D8F8180000EB800005EB4000303822
:1006F000C8F818002046E1688847054604F04CFB1E
:100700000028EED1012F0AD02E2D08D12046E16815
:1007100088477F1C0546022F46F02006C4DBA069EF
:10072000002803DA404246F00106A061F00701D03C
:1007300026F010066C2D0BD0682D09D04C2D39D029
:100740006A2D35D0742D35D07A2D33D016E038E0AF
:10075000E1682F4620468847B842054609D16C2FEC
:1007600026D04FF48060E16806432046884705465E
:1007700004E06C2F1AD04FF4807006430DB3A5F13E
:100780004100192802D8203546F400664A46294619
:10079000204626604E46FFF705FD80B101280BD0AC
:1007A000F61D26F0070000F1080956E74020E4E7AF
:1007B0008020D8E70020D6E706F104094DE7284657
:1007C00052E7206ABDE8F09F2B82000070B5064614
:1007D00000F070F90468054630460A22002100F056
:1007E00077FD2C6070BD401ECAB210F8011F8A420E
:1007F00002D00029F9D10020704710B5431E13F82C
:10080000014F002CFBD105E011F8014B002C03F83F
:10081000014B03D0521EF7D20021197010BD30B524
:1008200005460B462A4613F8014B12F8010B08B196
:10083000A042F8D01CB1002802D06D1CF1E7284678
:1008400030BD10B5431C02E010F8011B71B18107E7
:10085000FAD14FF0013202C88C1A8C4314EAC2114B
:10086000F9D0C01A0A0603D0C01E10BDC01A10BDB0
:100870000A0401D0801E10BD0902FCD0401E10BD2C
:1008800040EA010370B59B072ED14FF00136042AD0
:100890002AD308C810C99D1B9D43121F15EAC6150F
:1008A00017D0D8B2E1B2401A50EA056110D198B21F
:1008B000A1B2401A50EA05410AD123F07F4024F04A
:1008C0007F41401A50EA052102D1180EA0EB1460B6
:1008D00070BDA342DBD018BA21BA884201D90120E9
:1008E00070BD4FF0FF3070BD0AB9002070BD10F828
:1008F000013B11F8014B63B1A3420AD1521E08D04B
:1009000010F8013B11F8014B1BB1A34201D1521E5B
:10091000EDD1181B70BD032A40F2308010F0030C9B
:1009200000F0158011F8013BBCF1020F624498BF42
:1009300011F801CB00F8013B38BF11F8013BA2F1DF
:10094000040298BF00F801CB38BF00F8013B11F05A
:10095000030300F02580083AC0F0088051F8043BFA
:10096000083A51F804CBA0E80810F5E7121D5CBF67
:1009700051F8043B40F8043BAFF30080D20724BF9A
:1009800011F8013B11F801CB48BF11F8012B24BF2E
:1009900000F8013B00F801CB48BF00F8012B70477D
:1009A00010B5203AC0F00B80B1E81850203AA0E80A
:1009B0001850B1E81850A0E81850BFF4F5AF5FEA3E
:1009C000027C24BFB1E81850A0E8185044BF18C9F1
:1009D00018C0BDE810405FEA827C24BF51F8043B98
:1009E00040F8043B08BF7047D20728BF31F8023BEC
:1009F00048BF11F8012B28BF20F8023B48BF00F880
:100A0000012B70474FF000020429C0F0128010F053
:100A1000030C00F01B80CCF1040CBCF1020F18BFDA
:100A200000F8012BA8BF20F8022BA1EB0C0100F06D
:100A30000DB85FEAC17C24BF00F8012B00F8012B40
:100A400048BF00F8012B70474FF0000200B5134675
:100A500094469646203922BFA0E80C50A0E80C50DE
:100A6000B1F12001BFF4F7AF090728BFA0E80C508F
:100A700048BF0CC05DF804EB890028BF40F8042B88
:100A800008BF704748BF20F8022B11F0804F18BFF5
:100A900000F8012B704770477047704710B500F0A1
:100AA00053FC001D10BD00BFF96A000000487047EC
:100AB0002096002000487047189600207047704725
:100AC0007047704738B504460A4600206946AFF3C0
:100AD0000080002808BF38BD02460099204600F07B
:100AE00037FC012038BD012000F04CBFF8B5AFF352
:100AF0000080054600200C46102000BF0646A819BD
:100B0000A0420DD9324669460020AFF300800700AD
:100B100008BF00F037FF0098A04218BF0546C4196F
:100B2000FFF7C4FF05600746F01D20F007004619D7
:100B3000284600F00AF8B44208BFF8BDA21B3146AF
:100B40003868BDE8F84000F003BC00210160C0E94E
:100B5000011070471020704710B5FFF7ABFF006819
:100B600010BD10B50446FFF7A5FF046010BD09686D
:100B70004A0501D540B27047C905FCD500B270479F
:100B800009684A0501D5C0B27047C905FCD580B2D5
:100B900070472DE9F0470D4699469246044600F10C
:100BA00024080168880604D5E06921F0100121605D
:100BB00000E00120A84201DD471B00E00027A169F9
:100BC0007A1902EB0900081AA0612078C00602D445
:100BD0002046FFF761FC002608E0D4E901211AF85D
:100BE00006009047206A401C761C20624E45F4DBCC
:100BF0002078C0060AD52046FFF74EFC06E0D4E96F
:100C0000012130209047206A401C2062381EA7F145
:100C10000107F4DC07E0D4E9012118F8050090474A
:100C2000206A401C2062281EA5F10105F3DC204645
:100C3000FFF748FC2078000602D50220BDE8F087C7
:100C40000120FBE711680268006A530501D50870AE
:100C50000AE0D30501D5088006E0130603D5C217C4
:100C6000C1E9000200E008600120704770472DE9EB
:100C7000FF4F0C461E464FF0FF378BB0D2E9000104
:100C8000DDF860800A908A46C1F30A5505B93D46F1
:100C9000002108464FF00000BAF1000F00F44000B8
:100CA00005DA00EB80004FF4400101EA50004FEA02
:100CB0009059B9F1010F00DDB9460A9850EA4A008F
:100CC0000ED044F61050A5F2FF3545432F14B8F16D
:100CD000000F1ED07542291E1EDDC9F100021CE066
:100CE000B8F1010F4FF0000001D0302103E0F243D2
:100CF00005E02154401CB042FBDB304600220021BD
:100D000021540B99C1F80880C1E900200FB0BDE85B
:100D1000F08FBD1B6D1CDEE74A4600DA694206A86B
:100D200000F09AFD06AB93E8070003AB83E80700E9
:100D300050460A9900F0F8FE8DE80700A0F5005033
:100D40001F3800900398002D0ADD42F21F014A4629
:100D50000844002303A90390684601F061F909E003
:100D6000A0F500504A461F38002303A903906846A7
:100D700001F06BF98DE807000004000C03D04FF080
:100D8000FF30410800E01046B8F1000F03D0002208
:100D9000009215461EE0751E05D400F0F3FA3032BD
:100DA00062556D1EF9D5B3460122084302D00022D8
:100DB0007F1C04E02078302801D100227F1E002A09
:100DC000099784D01DE0112D07DA00F0DBFA3032EC
:100DD00062556D1C50EA0102F5D1084302D000981B
:100DE000C8B10EE00021681E05E0235C625C63541C
:100DF0002254401E491C8142F7DBAB46A81B401E13
:100E00000990002004F80B000B98099AC0F808809C
:100E1000C0E9002B7AE711264FF0000857E72DE9CB
:100E2000F04F88460446D21D22F0070191B0D1E967
:100E30000001CDE90A0103F025FF02460B98C00F1F
:100E400001D02D2007E02068810701D52B2002E08A
:100E5000202101EAC000032A099001D0072A05DBFE
:100E600003464146204600F051FC0BE12078800605
:100E700001D5E06900E00620B8F1650F814606D093
:100E8000B8F1660F18D0B8F1670F70D131E00020CB
:100E9000B9F1110F009001DB112301E009F1010309
:100EA0000AAA01A90CA8FFF7E2FEDDE90C700026F2
:100EB00009F10105834647E001204B4600904FF0C1
:100EC00000470AAA01A90CA8FFF7D1FEDDE90DB081
:100ED0000C995D46002610B909F101000D18B9EB17
:100EE000050003D4C0F1FF3609F10105A5EB0900A7
:100EF0002BE0B9F1010F01DA4FF001090020B9F13F
:100F0000110F0090484601DD112300E003460AAAB4
:100F100001A90CA8FFF7ABFEDDE90C704D460026D9
:100F20008346207800070AD4AB4500DA5D4601A865
:100F3000012D04DD411911F8011C302907D04F455E
:100F400002DA17F1040F04DA012082460FE06D1E69
:100F5000EEE7002F02DCED1B3E4403E0781CA842C4
:100F600000DD7D1CB81B00F1010A4FF0004720781E
:100F7000000703D4AA4501DB4FF0FF3A0021B7F187
:100F8000004F0DF143088DF8431024D002202B238D
:100F9000002F01DA7F422D230A21021EA0F1010059
:100FA00000DC5FB197FBF1FC97FBF1F201FB1C7CCD
:100FB00017460CF1300C08F801CDEEE7A8F101005E
:100FC00003702188090501D5452100E06521A0F1C4
:100FD000010800F8011C09980FA9A1EB0807FF1DE3
:100FE00000B10120411901EBEA70A1693844081AE7
:100FF000401EA0612078C00602D42046FFF74CFABC
:10100000099828B1D4E901219047206A401C206248
:101010002078C00622D52046FFF73EFA1EE0002EBB
:1010200004DBB34502DD01A8805D00E03020D4E997
:1010300001219047206A401C2062761CAAF1010021
:101040005FEA000A0AD100F07FF9C0680168405CDD
:10105000D4E901219047206A401C2062281EA5F196
:101060000105DCDC07E0D4E9012118F8010B904709
:10107000206A401C2062381EA7F10107F3DC2046DD
:10108000FFF720FA032011B041E6000001694A1C75
:1010900002610878704700B58FB0CDE901310021B9
:1010A000059105497944CDE9031011466846FFF7DB
:1010B000C9FA0FB000BD0000E5FFFFFF0A6802F8A3
:1010C000010B0A607047D1E900239A4202D2531CF7
:1010D0000B601070704710B5436913B1AFF3008017
:1010E00001E0FFF700FA012010BD127800F12401A1
:1010F0000A7000224A700122EDE711684FF0FF32BA
:10110000E9E70000074B70B50D467B44FFF7C3FFCE
:101110000446284600F012FC10B14FF0FF3070BDBD
:10112000204670BDBF3E00002DE9FF5F15468A4690
:101130000446DFF8AC80F8440027D8E900103E46AA
:10114000CDE9001010E03AF816106A4602A800F047
:10115000F9FB411C07D02178890603D5E2693918CB
:1011600091420DD80744761C2078800602D5E069AC
:10117000B84205DDAE42E6DB3AF816000028E2D1BF
:10118000A069C01BA0612046FFF786F9D8E90010CE
:10119000CDE90010002017E03AF818106A4602A8BE
:1011A00000F0D0FBB0F1FF3F81460BD000250DF1E0
:1011B000080B05E0D4E901211BF8050090476D1CE0
:1011C0004D45F7D308F10100B0428046E4DB206AC8
:1011D000384420622046FFF775F9BDE8FF9F000004
:1011E000E67700002DE9F0418046D21D22F007028B
:1011F0000025D2E90002F52915A614D0011E72F1CE
:10120000000106DA0023D0EB030063EB020211A613
:1012100008E0D8F800108B0701D50FA602E04907B7
:1012200001D50EA601251146002408F1240704E08B
:1012300000F0A8F830323A55641C50EA0102F7D1A8
:101240002B46324621464046BDE8F041FFF7A1BC9F
:10125000000000002D0000002B0000002000000016
:1012600030B4002100F1240408E002F00705D208A0
:10127000303542EA4372DB086554491C52EA0305E3
:10128000F3D10468002310A2250707D5A40600D4D3
:1012900021B1C46901230DA2641EC46130BCFFF7F3
:1012A00078BC10B5044621461068FFF769FC024679
:1012B0002046BDE810400023D2E7D21D22F00701EE
:1012C000D1E90023CCE7000000000000300000005E
:1012D0002DE9F04791460F4680460446002614F853
:1012E000015B2DB1FFF7DAFB0068405DC007F6D166
:1012F0002B2D02D02D2D18D0641E4A46394620468B
:1013000000F05AFA27B13968A14201D1C7F800802C
:101310004FF0020471050BD54042002803DDFFF7B2
:10132000C9FB0460A007BDE8F08746F48066E4E7E7
:101330000028F8DAFFF7BEFB04606FF00040F2E728
:1013400000487047189600200048704738960020E3
:10135000034640688C46002818BF88423CBF0346BD
:101360004068F8D318681844884207D00CF103008D
:1013700020F00700001D411A521A0146081D0A609C
:10138000FFF719B830B5B0F10A024FEA900E71F1CB
:1013900000034EEA817EB0EB0E0061EB91014FEA53
:1013A000101E4EEA017E10EB0E0041EB11114FEAC8
:1013B000102E4EEA016E10EB0E0041EB11214FEAA8
:1013C000104E4EEA014E10EB0E0041EB1141401859
:1013D00041F100014FEAD00040EA41704FEAD101EB
:1013E00010EB80054FEA810444EA907444EB010459
:1013F0006D1944EB0404521BA3414FF0000348BF96
:101400000A3200D530BD401C41F1000130BD000062
:101410002DE9F04F04460D46D21D22F0070089B099
:10142000D0E900974846394603F02CFC0246F80FF5
:1014300001D02D2307E02068810701D52B2302E08E
:10144000202101EAC0038DF820300BB1012000E01B
:101450000020032A824601D0072A04DB29462046C1
:1014600000F054F93FE12078800601D40D2500E01A
:10147000E569C7F30A560D2D49DA00214FEA175BDB
:1014800008464FF00000002F00F4400007DA00EBA0
:1014900080004FF4400100EBD07001EA600081153C
:1014A000012901DD4FF0FF3100224FEA850CBCF12C
:1014B000180F06D31346ACF118004FF08052C2400B
:1014C00003E04FF4801323FA0CF30CF10C0CBCF185
:1014D000200F04D3ACF1200C09FA0CF001E007FA5C
:1014E0000CF000294FF0004801DD18B90FE00ED1D3
:1014F00040450CD319EB02095F4121B9404502D1A7
:101500009F4329EA0209BBEB175F00D0761C2088B5
:10151000000502D57B48784402E07A4878441938BF
:1015200008AA302302F80A30037C0AF10101002ED8
:101530000AF1020A53546A4602DC4FF0300101E01E
:101540004FF031014FF001088DF8001002D0A6F2E3
:10155000FF3603E059EA470100D06B4E002D02DC54
:101560002178090704D54FF002082E218DF80110CB
:10157000C44600210BE0C7F303433F01C35C491C91
:101580006D1E02F80830052908F1010801DA002D66
:10159000F1DC00210CE000EB1973491C1B786D1E77
:1015A000082902F808304FEA091908F1010801DAA0
:1015B000002DF0DC21688B0602D516E0A8F10108A9
:1015C000E04505DD02EB080313F8013C302BF5D0B4
:1015D000B8F1000F09DD02EB080313F8013C2E2BD4
:1015E00003D1090701D4A8F10108002D05DD3E2132
:1015F00002F808106D1E08F10108407C002E02F868
:10160000080008F1010804DA2D20764202F80800EB
:1016100002E02B2002F808000A214FF47A7086427B
:1016200008F101080BDB96FBF0F3303302F80830C9
:1016300096FBF0F308F1010800FB136601E0642E4D
:101640000CDB642096FBF0F3303302F8083096FB95
:10165000F0F308F1010800FB136601E00A2E06DB37
:1016600096FBF1F0303002F8080008F1010896FB13
:10167000F1F001FB1060303002F80800A16908F1B8
:10168000010808EB050202EB0A00081AA0612078A5
:10169000C00602D42046FEF7FFFE216A08AE01EB29
:1016A0000A00206204E0D4E9012116F8010B9047FA
:1016B000BAF1010AF7D22078C00602D52046FEF71B
:1016C000EBFE6E4609E016F8010B3E280FD0D4E978
:1016D00001219047206A401C2062B8F10108F2D233
:1016E0002046FEF7EFFE09B00320BDE8F08F206A28
:1016F0002844206203E0D4E90121302090476D1E88
:10170000EBD3F8E72974000002FCFFFF2DE9F0415C
:101710001F46044603260168072A01F4006004DB23
:1017200008B116A505E016A503E008B115A500E06F
:1017300015A521F010002060A069C01EA0610FB1A6
:10174000401EA0612046FEF7A7FE4FB1D4E901215B
:1017500038469047206A401C2062C01C206206E088
:10176000206AFAE7D4E9012115F8010B9047761EAB
:10177000F8D22046FEF7A6FEBDE8F0814E414E00AD
:101780006E616E00494E4600696E660010B5436991
:1017900013B1AFF3008001E0FFF7C6FC012010BDDC
:1017A000128800F1240182840022C2840122EDE724
:1017B00011684FF0FF32E9E72DE9F05F82461546E8
:1017C0008B4600270AF10104B9460078302801D081
:1017D0009DB113E014F8010B0127782803D0582895
:1017E00001D045B10AE00DB1102D07D1002714F842
:1017F000010B102502E0082500E00A250026B0466E
:101800000EE005FB080005FB06F101271FFA80F832
:1018100001EB1046B6F5803F00D3B94614F8010B32
:10182000294600F0DCF80028EBDABBF1000F05D008
:101830000FB1641E00E05446CBF80040B9F1000F30
:1018400006D0FFF737F902210160C81EBDE8F09FFE
:1018500048EA0640FAE700002DE9F04781461646BF
:101860008AB0354878440DC88DE80D003248784478
:10187000801C03AC0DC884E80D0041F69B30084481
:10188000372190FBF1F290FBF1F5A5F1800501FB0A
:1018900012041B3C02D56442012000E00020DFF866
:1018A00098A080460027FA44AAF1BE0A0EE0E0079D
:1018B0000AD03246684607EB470101230AEB810153
:1018C00000F0C3FB8DE8070064107F1C002CEED1F4
:1018D000194F7F44AE3F19E0E80715D007EB04101D
:1018E0000DF1180A90E80E008AE80E00C068F04278
:1018F00001D1981908903246012306A903A800F0E7
:10190000A4FB03AB83E807006D10641C002DE3D13A
:101910004FF0010332466946B8F1000F03A802D028
:1019200000F07EFB01E000F090FBC9E90001C9F87E
:1019300008200AB0BDE8F0876C710000007B00F061
:101940008000704770B516460C460546FFF7A6F8AE
:10195000036893F80101012806D0FF2C0FD8185D09
:1019600068B101202C7070BDD3F8070132462146C2
:1019700003F2071303442846BDE8704018474FF0B0
:10198000FF3070BD10B500F047F8BDE8104000F022
:101990003DB870477546FFF7D3FCAE460500694673
:1019A000534620F00700854618B020B5FEF7C2FC6C
:1019B000BDE820404FF000064FF000074FF0000850
:1019C0004FF0000B21F00701AC46ACE8C009ACE8D1
:1019D000C009ACE8C009ACE8C0098D4670473A2898
:1019E00000D2303820F02002412A01D3A2F1370082
:1019F000884201D34FF0FF30704710B50446AFF373
:101A000000802046BDE81040FEF733BC002801D01E
:101A100003F0C9B97047000010B5012805D00021B6
:101A200003A000F061F8012010BD09A1F8E7000053
:101A300053494752544D454D3A204F7574206F66B7
:101A40002068656170206D656D6F7279000000001F
:101A50003A2048656170206D656D6F727920636F03
:101A600072727570746564004FF0013C50F8042B7D
:101A700051F8043B9A4221D1A2EB0C03934313EAA1
:101A8000CC1317D150F8042B51F8043B9A4215D1CE
:101A9000A2EB0C03934313EACC130BD150F8042BA5
:101AA00051F8043B9A4209D1A2EB0C03934313EA89
:101AB000CC13DBD04FF00000704700BFD01A01BA42
:101AC000B1FA81F101F0180122FA01F0CB40C1F125
:101AD0002001DBB2C0B2C01A2CFA01F3D11A914333
:101AE00011EAC311E6D1704770B505460C460A20CD
:101AF00000E06D1C00F011F835B128780028F8D10D
:101B000002E0641C00F009F814B120780028F8D134
:101B1000BDE870400A20AFF3008008B569468DF833
:101B200000000320ABBE08BD5FEA400C08BF91F087
:101B3000000F4FEA8C234FEAC12243EA51514FEA8A
:101B40001C5018BF00F5F0404FEA300018BF41F0BC
:101B500000415FEA6C5C00F02980BCF1FF3F08BFE8
:101B600040F080407047130C06BF12044FF0100C79
:101B70004FF0000C130E04BF12020CF1080C130FEF
:101B800004BF12010CF1040C930F04BF92000CF17E
:101B9000020CD30F04BF52000CF1010C11464FF0A0
:101BA0000002A0F11F00A0EB0C00704711F0004FE5
:101BB00008BF704731F000413FF4D5AF0B0C06BFB2
:101BC00009044FF0100C4FF0000C0B0E04BF09027B
:101BD0000CF1080C0B0F04BF09010CF1040C8B0F66
:101BE00004BF89000CF1020CCB0F04BF49000CF1BB
:101BF000010CCCF12003A0EB0C0022FA03F302FA53
:101C00000CF241EA030100F10100704720F07F4C23
:101C100080EA030023F07F47ACEB070303F57C5316
:101C200000F0004003F1FF032DE980494FEA154B16
:101C300009B44FEA144325EA0B4E24EA03480FF295
:101C4000042606EB132749083E785FEA320203FBBD
:101C50000667C7F5000707FB06F64FEA54374FEA59
:101C6000D64606F1020607FB066CCCF1005C4FEA93
:101C70001C472CEA074C07FB06F40CFB06F504EBAB
:101C800015464FEA961634BF00204FF000404FEA49
:101C9000D13706FB07FC4FEA1C4C0CFB0BF7D21BA1
:101CA00003FB0CF761EB07010CFB0EF7B0EB0740F1
:101CB00072EB17420CFB08F734BFA2EB0742B2EB02
:101CC000074261EB17414FEA0C444FEA910706FBCC
:101CD00007FC4FEA1C4C0CFB0BF7B0EBC74072EB58
:101CE000573203FB0CF734BFA2EBC742B2EBC7423B
:101CF00061EB57310CFB0EF7B0EBC70072EB57727C
:101D00000CFB08F734BFA2EBC702B2EBC70261EBD2
:101D10005771039F4FEA816141EA921104EBCC04B1
:101D20004FEAD1374FEA826206FB07FC42EA901283
:101D30004FEA80604FEA1C4C0CFB0BF7D21B03FBF5
:101D40000CF761EB07010CFB0EF7B0EB074072EBF1
:101D500017420CFB08F734BFA2EB0742B2EB074275
:101D600061EB17414FEA8C554FEA910704EB9C2435
:101D700006FB07FC4FEA1C4C0CFB0BF7B0EBC74013
:101D800072EB573203FB0CF734BFA2EBC742B2EB46
:101D9000C74261EB57310CFB0EF7B0EBC70072EB9B
:101DA00057720CFB08F734BFA2EBC702B2EBC702B5
:101DB00061EB577115EB4C254FEA816141EA9211B5
:101DC0004FEA82624FEAD13742EA901206FB07FCE3
:101DD00044F100044FEA80604FEA1C4C0CFB0BF707
:101DE000D21B03FB0CF761EB07010CFB0EF7B0EB0A
:101DF000074072EB17420CFB08F734BFA2EB074217
:101E0000B2EB074261EB174115EB1C154FEA81312C
:101E100041EA92414FEA823242EA90424FEA8030F0
:101E20004FEA0C7644F1000448EA03434EEA0B48BB
:101E30004FF0000EB2EB080C71EB030724BF6246B3
:101E400039464EEB0E0E4FF0000B0018524149413F
:101E50004BEB0B0BB2EB080C71EB03077BF1000BA8
:101E600024BF624639464EEB0E0E4FF0000B0018B1
:101E7000524149414BEB0B0BB2EB080C71EB0307E2
:101E80007BF1000B24BF624639464EEB0E0E51EA41
:101E9000020718BF46F0010616EB0E7655F1000258
:101EA00054F1000103D5BDE88901BDE80088BDE813
:101EB0008901BDE80048B619524141EB0101A3F187
:101EC0000103704780807F7E7D7C7B7A797877768E
:101ED00076757473727171706F6E6E6D6C6C6B6A07
:101EE0006A696868676666656464636362616160A5
:101EF000605F5F5E5E5D5D5C5C5B5B5A5A59595822
:101F0000585757565655555554545353525252518B
:101F1000515050504F4F4F4E4E4D4D4D4C4C4C4BE1
:101F20004B4B4A4A4A494949484848474747474628
:101F30004646454545444444444343434342424264
:101F400042414141002B9C4630D477002BD01CB538
:101F50004FEA370703B44FF010004FF01001BAF109
:101F6000000F06D0BCF1000FDCBF40F0080040F0CD
:101F700008014FF000000FBCBDE810400BF1010B51
:101F8000BBF1010F08BF5FEA170722BF12F1010280
:101F900011F101014FF0004143F1000300F0004056
:101FA00043EA00007047F9D35708D0E746EA0646EF
:101FB00013F1400F4FEA16461FDD13F1200FDFBF6C
:101FC00016430A46002120335B42BED0C3F12007EE
:101FD00046EA064602FA07F74FEA164646EA0706B9
:101FE000C3F1200722FA03F201FA07F721FA03F1FD
:101FF0004FF0000342EA0702A7E746EA020646EA74
:1020000006464FEA164646EA0106BCBF46EA0646C1
:10201000360C4FF000034FF000024FF0000194E740
:102020002DE9804C9A46934670B491E8380007C871
:1020300031EA400C48BF34EA430C03D5FFF7E6FD14
:10204000FFF780FFF0BCBDE8008C2DE9804C9A467C
:10205000934670B491E8380007C810F0804F08BF6D
:1020600013F0804F03D100F005F8FFF76BFFF0BCD1
:10207000BDE8008C20F07F4780EA030023F07F4C0E
:1020800007EB0C03A3F57C5300F00040A3F1FE0323
:1020900092F0000F00F0B38095F0000F00F0778011
:1020A0002DE901494FEA11404FEA144621EA004860
:1020B00000FB06FC24EA064708FB06F607FB08F8C7
:1020C00000FB07F718EB06484CEB164C4FEA124B97
:1020D00018EB07484FEA15464CEB174022EA0B4E27
:1020E0000BFB06FC25EA06470EFB06F607FB0EFE79
:1020F0000BFB07F71EEB064E4CEB164C4FF00006A1
:102100001EEB074E4CEB174B18EB0B0840F1000091
:1021100018EB0E0B58EB000840F100008F1A4FF03F
:1021200000013CBFC943661B14BFB5EB040C002182
:102130003CBFC943F61B4FEA17444EEA8E0E27EA0E
:1021400004454FEA1C4704FB07622CEA074C05FBD9
:1021500007F70CFB05F604FB0CFC16EB074642EBFD
:10216000174216EB0C4642EB1C421BEB060658EBE3
:102170000202414146EA9E0601D5BDE80189B61931
:10218000524141EB0101A3F10103BDE801894FEA8E
:1021900014454FEA114724EA054621EA074C05FB9E
:1021A00007F406FB07F70CFB06F105FB0CFC11EB33
:1021B000074144EB17444FEA124711EB0C4144EB43
:1021C0001C4422EA074C05FB07F206FB07F70CFB51
:1021D00006F605FB0CFC16EB074642EB174216EB26
:1021E0000C4642EB1C456A1854F1000148BF704789
:1021F000B619524141EB0101A3F10103704795F07B
:10220000000F37D04FEA11424FEA144721EA024645
:1022100024EA074C02FB07F106FB07F70CFB06F468
:1022200002FB0CFC14EB074441EB17414FEA154746
:1022300014EB0C4441EB1C4125EA074C02FB07F56B
:1022400006FB07F70CFB06F602FB0CFC16EB074639
:1022500045EB174516EB0C4645EB1C42121951F1A4
:10226000000148BF7047B619524141EB0101A3F18B
:10227000010370474FEA14454FEA114724EA054627
:1022800021EA074C05FB07F106FB07F70CFB06F2FA
:102290004FF0000605FB0CFC12EB074241EB174127
:1022A00012EB0C4251EB1C4148BF7047921841EBB6
:1022B0000101A3F10103704721B1826842F00102DC
:1022C000826003E0826822F00102826070470000B1
:1022D00010B504461248844208D10121401501F08E
:1022E000B7FF0021601501F0B3FF17E00D488442ED
:1022F00008D10121001501F0ABFF0021201501F0EC
:10230000A7FF0BE00848844208D10121C80301F06F
:102310009FFF00214FF4004001F09AFF10BD000024
:102320000024014000280140003C014001460020FB
:102330008A6802F004020AB1012000E00020704720
:102340000146C86C80B270470246002013680B40FB
:102350000BB1012000E000207047014600208A6890
:1023600002F008020AB1012000E0002070470000DE
:1023700030B502460020002350680F4C20400D79F4
:102380000C6844EA05242043506090680B4C2040C0
:10239000D1E902542C434D7944EA4504204390602E
:1023A000D06A20F470000C7C641EE4B2234340EA3F
:1023B0000350D06230BD0000FFFEF0FFFDF7F1FFDB
:1023C000F0B504460D4600200021092D11DDE0681E
:1023D000A5F10A0606EB4607072606FA07F1884329
:1023E000A5F10A0606EB460603FA06F10843E0608B
:1023F0000CE0206905EB4507072606FA07F188433C
:1024000005EB450603FA06F108432061072A0FDAB7
:10241000606B561E06EB86071F2606FA07F18843F7
:10242000561E06EB860605FA06F10843606322E0B5
:102430000D2A0FDA206BD61F06EB86071F2606FA39
:1024400007F18843D61F06EB860605FA06F1084316
:10245000206310E0E06AA2F10D0606EB86071F2656
:1024600006FA07F18843A2F10D0606EB860605FA87
:1024700006F10843E062F0BD816841F00801816027
:10248000704721B1826842F4A002826003E0826852
:1024900022F4A00282607047816841F004018160EB
:1024A0007047000000B587B001214FF4017001F0C2
:1024B000BFFE4FF4004001F09FFE1220ADF8040073
:1024C00000208DF8070001A9174800F00BFC174801
:1024D000FFF7FEFE002002908DF80C008DF80D0035
:1024E0004FF4602004900020059001208DF8180022
:1024F00002A90E48FFF73CFF01210C48FFF7DCFE64
:102500000A48FFF7B9FF00BF0848FFF726FF002879
:10251000FAD10648FFF7C0FF00BF0448FFF706FFE7
:102520000028FAD107B000BD000801400024014096
:102530001CB5012404F028FB3C480721002362025B
:10254000CDE900103AA13C4804F09AFE0446012C63
:1025500002D13AA0FDF77EFF3E48062100234FF44A
:102560000072CDE900103CA13F4804F089FE04460A
:10257000012C02D13DA0FDF76DFF44480521002349
:102580004FF40072CDE9001041A1444804F078FEF8
:102590000446012C02D142A0FDF75CFF464804210D
:1025A0000023CA01CDE9001044A1474804F068FEA9
:1025B0000446012C02D145A0FDF74CFF49480321F8
:1025C00000234FF40072CDE9001047A1494804F000
:1025D00057FE0446012C02D147A0FDF73BFF4D48B2
:1025E000022100230A02CDE900104BA14D4804F05E
:1025F00047FE0446012C02D14BA0FDF72BFF4F48AC
:10260000022100230A02CDE900104DA14F4804F039
:1026100037FE0446012C02D14DA0FDF71BFF5248A6
:10262000006804F0E1FB04F0F5FA1CBD5000002046
:1026300051545F5461736B0099410008B4B4BDA854
:1026400051545F5461736BC8CECEF1B3C9B9A621A2
:102650000D0A0000540000206175746F7761746585
:10266000725F5461736B0000AD4D0008B4B4BDA837
:102670006175746F77617465725F5461736BC8CEF6
:10268000CEF1B3C9B9A6210D0A0000005800002000
:102690004448545F5461736B00000000BD2800087B
:1026A000B4B4BDA84448545F5461736BC8CECEF136
:1026B000B3C9B9A6210D0A0068000020434F325F5C
:1026C0005461736B000000004D280008B4B4BDA82D
:1026D000434F325F5461736BC8CECEF1B3C9B9A614
:1026E000210D0A005C0000204C696768745F54612A
:1026F000736B0000D12F0008B4B4BDA84C696768A3
:10270000745F5461736BC8CECEF1B3C9B9A6210D05
:102710000A00000060000020776966695F546173F9
:102720006B00000081700008B4B4BDA877696669C9
:10273000C8CECEF1B3C9B9A6210D0A0064000020AD
:1027400073686964755F5461736B0000B169000858
:10275000B4B4BDA87368696475C8CECEF1B3C9B905
:10276000A6210D0A000000004C00002010B502F068
:10277000E1FC472002F0ACFC00BF02F00FFD002896
:10278000FBD102F081FC04464FF6FF7000EA0424FE
:1027900002F02AFC02F078FC204484B202F05AFCD9
:1027A00002F0E6FC204610BD10B5462002F03AFCCF
:1027B000012803D103A0FDF74DFE02E004A0FDF7C0
:1027C00049FE10BD424831373530D2ECB3A30A0080
:1027D000424831373530D5FDB3A30A0010B5044661
:1027E00000BF02F0A7FC462002F072FC02F0D6FC0B
:1027F0000028F6D1204602F06BFC02F0CFFC02F07C
:10280000B7FC10BD10B54FF4407001F0C1F900F0F5
:10281000B7FB4FF4E13004F01DF94FF4E13002F062
:1028200081F904F095F800F07FF800F08BFBFFF7DA
:1028300039FEFFF7B9FF00F067FB1120FFF7CEFF6D
:1028400001F0E8FE10BD00BFFEE7000010E04FF40D
:102850007A7004F087FA0821202001F007FF01F0C8
:10286000E1FE0449086008460068000C024908605F
:10287000EDE700003C0000204000002008B50120EA
:10288000ADF8000048208DF803006946014800F0CB
:1028900029FA08BD000C014008B50120ADF8000080
:1028A00010208DF8030003208DF8020069460248CD
:1028B00000F018FA08BD0000000C01400AE04FF4D7
:1028C0007A7004F04FFA4FF47A7004F04BFA024831
:1028D00001F0E5F8F3E70000280000207047000051
:1028E00010B5002408E0601C84B2012002F04AFB0D
:1028F000322C01DD012010BD01210A4800F07DFAD3
:102900000128F0D000BF0121064800F076FA002827
:10291000F9D000BF0121034800F06FFA0128F9D077
:102920000020E8E7000C014008B50121882001F0F3
:102930007FFC0120ADF8000010208DF8030003207B
:102940008DF8020069460B4800F0CCF914208DF890
:1029500003004FF44060ADF8000003208DF8020042
:102960006946054800F0BEF901221146014800F011
:1029700051FA08BD000C0140001C014010B5802137
:102980000348FEF73FF800200249088010BD000010
:1029900098950020E400002070B50546002400BF93
:1029A00000F086F980B90DA10E48FDF738FF044606
:1029B00054B13A212046FDF716FF044614B1641CB9
:1029C000204670BD0020FCE7052004F0CBF9681E0E
:1029D00085B2002DE4DC0020F3E700004950442CD0
:1029E000000000009895002008B50121082001F0A2
:1029F0001FFC10208DF803008002ADF800000320BA
:102A00008DF8020069463D4800F06CF900224FF451
:102A100080413A4800F0FEF9FA2004F0A3F90122BF
:102A20009103364800F0F6F94FF4FA7004F09AF981
:102A3000FFF7A4FF32A1344802F0CAF803E04FF4D4
:102A4000FA7004F08FF931A131A000F0E3F800280A
:102A5000F5D131A12C4802F0BBF82EA131A000F035
:102A6000D9F84FF4FA7004F07DF92AA130A000F0F3
:102A7000D1F84FF4FA7004F075F931A1224802F050
:102A8000A7F803E04FF4FA7004F06CF91FA12FA02F
:102A900000F0C0F80028F5D130A11B4802F098F8EA
:102AA00003E04FF4FA7004F05DF918A12FA000F0D4
:102AB000B1F80028F5D131A1134802F089F803E0FC
:102AC0004FF4FA7004F04EF92FA131A000F0A2F8F3
:102AD0000028F5D138A10C4802F07AF803E04FF451
:102AE000FA7004F03FF938A139A000F093F80028FB
:102AF000F5D142A1044802F06BF808BD000C01407A
:102B0000302E2041540D0A00003801404F4B000088
:102B100041540D0A00000000312E205253540D0A7A
:102B20000000000041542B5253540D0A00000000D5
:102B300041542B434950434C4F53450D0A0000006C
:102B4000322E2043574D4F44450D0A0041542B432C
:102B5000574D4F44453D310D0A000000332E2041B2
:102B6000542B4357444843500D0A000041542B4313
:102B700057444843503D312C310D0A00342E204338
:102B8000574A41500D0A0000474F54204950000059
:102B900041542B43574A41503D22486F6E6F725843
:102BA0003330222C22313233333231313233343527
:102BB0003637220D0A000000352E20434950535469
:102BC0004152540D0A000000434F4E4E45435400FD
:102BD00041542B43495053544152543D2254435085
:102BE000222C2234372E3233362E32342E323438E1
:102BF000222C313838330D0A00000000362E2045D3
:102C000053503832363620496E6974204F4B0D0AC6
:102C1000000000002DE9F04104460D46C82620467C
:102C2000FDF70FFE87B23A4621460D4801F0F4FF4A
:102C30000FE000F03DF848B929460A48FDF7EFFDDE
:102C400020B1FFF79BFE0020BDE8F0810A2004F0D0
:102C500089F8301EA6F10101CEB2EAD10120F3E7D6
:102C6000004400409895002030B589B004460D46D8
:102C7000FFF784FE2A4608A101A8FDF7F7FB0AA189
:102C800001A8FFF7C7FF20B92A462146074801F0EF
:102C9000C3FF09B030BD000041542B434950534598
:102CA0004E443D25640D0A003E00000000440040F3
:102CB0000A48008808B90120704708480088084978
:102CC0000988884203D1002004490880F4E70348BA
:102CD0000088034908800120EEE70000E40000209E
:102CE000E60000202DE9F0410246002500260020E4
:102CF00000230024002791F803C00CF00F0591F881
:102D000003C00CF0100CBCF1000F03D091F802C00E
:102D10004CEA050591F800C0BCF1000F31D01468F1
:102D200000202BE04FF0010C0CFA00F3B1F800C0CA
:102D30000CEA03069E4220D183004FF00F0C0CFAE0
:102D400003F7BC4305FA03FC4CEA040491F803C002
:102D5000BCF1280F06D14FF0010C0CFA00FCC2F8B0
:102D600014C00AE091F803C0BCF1480F05D14FF040
:102D7000010C0CFA00FCC2F810C0401C0828D1D38A
:102D80001460B1F800C0BCF1FF0F34DD54680020BE
:102D90002EE000F1080C4FF0010808FA0CF3B1F82E
:102DA00000C00CEA03069E4221D183004FF00F0CB5
:102DB0000CFA03F7BC4305FA03FC4CEA040491F84F
:102DC00003C0BCF1280F05D100F1080C08FA0CF87B
:102DD000C2F8148091F803C0BCF1480F07D100F18C
:102DE000080C4FF0010808FA0CF8C2F81080401CDB
:102DF0000828CED35460BDE8F081024600209368D5
:102E00000B400BB1012000E000207047416170478A
:102E1000016170470AB1016100E041617047000043
:102E200010B504460723012221460948FFF7C8FAD6
:102E300001210748FFF725FB00BF02210448FFF7E7
:102E400083FA0028F9D00248FFF77AFA10BD000093
:102E5000002401402DE9F84F81460C46002500264C
:102E600008E04846FFF7DCFF0544052002F06AF859
:102E7000701CC6B2A642F4DBB5FBF4FA504605F06E
:102E800013FB07463946094805F0EEFB0849009058
:102E900005F02CFA8346074905F01AFB824605F037
:102EA000E7FA80461FFA88F0BDE8F88F00F07F450A
:102EB00000500C450000C84200BFFEE708B50121E4
:102EC000082001F0B5F94FF40060ADF800000320D0
:102ED0008DF8020014208DF8030069460948FFF7B9
:102EE00001FF4FF48060ADF8000003208DF8020070
:102EF00014208DF8030069460248FFF7F3FE02F044
:102F000037F908BD000C014010B50120FFF766FC41
:102F100004A0FDF79FFA0720FFF760FC05A0FDF76E
:102F200099FA10BD424831373530C6F4B6AFB3C94F
:102F3000B9A60A00424831373530C7E5B3FDB3C9F9
:102F4000B9A60A0008B50121442001F071F9012059
:102F5000ADF8000028208DF8030069460648FFF709
:102F6000C1FE1C20ADF8000048208DF80300694622
:102F70000248FFF7B7FE08BD0008014000180140F5
:102F800008B50121482001F053F94FF48070ADF8E5
:102F9000000010208DF8030003208DF80200694620
:102FA0000948FFF79FFE4FF480710748FFF730FF95
:102FB0002020ADF8000069460448FFF793FE202169
:102FC0000248FFF725FF08BD000C01400018014032
:102FD00023E04FF47A7003F0C5FEFFF7C7FB80468D
:102FE00004F096FD06464FF033320C4B04F0F2FB32
:102FF000044604F001FB0A490860FFF7B7FB80466E
:1030000004F086FD06464FF03332044B04F0E2FB39
:10301000044604F037FD03490860DAE73333F33F31
:10302000340000204800002010B50446207B012811
:1030300002D12068FDF7BFF9002020606060A06029
:10304000207310BD0246002301230DE002F07F0033
:103050000870D2092AB1087840F080000870491C35
:1030600001E0184670475B1C042BEFDD4FF0FF308A
:10307000F8E770B504460E460025206898B901208F
:1030800020733046FDF768F920602068E0B1002029
:103090006060A66003E00020216848556D1CA068B0
:1030A000A842F8D810E00220207303E00020216835
:1030B00048556D1CA068A842F8D800206060A06840
:1030C000B04201D20020206070BD00002DE9FF4F0A
:1030D00083B082468B469146159C002500200290C5
:1030E0000F2701904846FDF7ACFB0FFA80F8B9F1C5
:1030F000000F03D1012007B0BDE8F08F08F10200F6
:10310000384487B2109808B145F00205129878B19A
:1031100045F004051298FDF794FBC0B20290139895
:10312000FDF78FFB01460298001D0844384487B222
:10313000119820B1012804D0022808D104E000BF72
:1031400007E045F00C0504E045F0140501E002201D
:10315000D1E700BF149808B145F02405BAF1000F7B
:1031600002D0BBF1000F01D10320C4E745F0C00538
:103170005046FDF766FB06465846FDF762FB3044B5
:10318000001D384487B239462046FFF772FF206899
:1031900008B90420AFE739462068FDF733FC102159
:1031A0006268501C606020688154D4E90023D11803
:1031B000781FFFF747FF00B201900198002804DA5A
:1031C0002046FFF731FF052095E761680198084424
:1031D000606000216268501C606020688154042196
:1031E0006268501C6060206881544D216268501CE8
:1031F00060602068815451216268501C60602068C2
:10320000815454216268501C606020688154626857
:10321000501C60602068815404216268501C60600A
:10322000206881546168481C606020684554069895
:10323000010A6268501C6060206881540698C1B21F
:103240006268501C606020688154C8F3072162687E
:10325000501C6060206881546268501C6060206867
:1032600000F80280D4E90012881842464946FDF76A
:10327000C4FA60684044606005F00400B8B30026FA
:10328000139808B938A013901298FDF7DAFA86B2AD
:10329000310A6268501C6060206881546268501C6A
:1032A000606020688654D4E900128818324612996A
:1032B000FDF7A3FA6068304460601398FDF7C1FA27
:1032C00086B2310A6268501C60602068815462686E
:1032D000501C606020688654D4E900128818324679
:1032E0001399FDF78AFA60683044606000BF05F00A
:1032F0008000C8B15046FDF7A4FA86B2310A626870
:10330000501C6060206881546268501C60602068B6
:103310008654D4E90012881832465146FDF76DFAFA
:1033200060683044606000BF05F04000C8B1584696
:10333000FDF787FA86B2310A6268501C6060206827
:1033400081546268501C606020688654D4E9001281
:10335000881832465946FDF750FA6068304460607C
:1033600000BF0020C7E60000000000002DE9FF4F6D
:1033700083B0834617469946139C002500260020FB
:10338000029001908046BBF1000F03D1012007B0ED
:10339000BDE8F08F00260AE00498805D232803D062
:1033A0000498805D2B2801D10220F0E7761C049858
:1033B000805D0028F0D148F03008119808B148F03D
:1033C000010806EB0900851C109820B1012804D0E3
:1033D00002280AD105E000BF09E048F00208AD1C50
:1033E00005E048F00408AD1C01E00320CFE700BF72
:1033F0008FB33878022821D14FF0000A00BF504621
:103400000AF1010A385C7D28F9D1AAF1030A0AF110
:10341000070002900298A9EB000AE81CA0EB0A0141
:103420002046FFF726FE206808B90420AFE7EA1C13
:10343000A2EB0A012068FDF7E5FA19E0691D2046B4
:10344000FFF717FE206808B90420A0E7691D20686F
:10345000FDF7D8FA0CE0FFE7691D2046FFF709FEEB
:10346000206808B9042092E7691D2068FDF7CAFAB0
:103470006168481C6060206800F80180D4E900029F
:1034800081182846FFF7DEFD01900198002804DA34
:103490002046FFF7C9FD052079E7616801980844D7
:1034A0006060C6F307216268501C60602068815428
:1034B0006268501C606020688654D4E90012881845
:1034C00032460499FDF799F96068304460601098BD
:1034D00060B14FEA1B216268501C60602068815413
:1034E0006268501C6060206800F802B0C7B138788C
:1034F00002280BD1D4E9001288183946029AFDF748
:103500000AFA616802980844606009E0D4E9001290
:1035100088184A463946FDF7FEF9606848446060FD
:10352000002034E770B505460C4604212046FFF71D
:10353000A0FD206808B9012070BD70216268501C90
:1035400060602068815402216268501C60602068BD
:10355000815429126268501C60602068815462683E
:10356000501C6060206885540020E5E770B5054672
:103570000C4604212046FFF77CFD206808B9012095
:1035800070BD62216268501C606020688154022115
:103590006268501C60602068815429126268501C67
:1035A0006060206881546268501C606020688554A7
:1035B0000020E5E72DE9FF5F8046174699460E9CFF
:1035C0000026B246B3460025B8F1000F03D1012012
:1035D00004B0BDE8F09F0BE057F8250008B90220C1
:1035E000F6E757F82500FDF72CF90644681CC5B22C
:1035F0004D45F1DB09EB4900801C00EB060A0AF19E
:1036000005012046FFF735FD206808B90320DFE7F4
:1036100082216268501C606020688154D4E90002F5
:1036200081185046FFF70EFD0FFA80FBBBF1000F2B
:1036300004DA2046FFF7F8FC0420C9E76068584424
:1036400060604FEA18216268501C606020688154F5
:103650006268501C6060206800F80280002524E049
:1036600057F82500FDF7EDF80646C6F30721626816
:10367000501C6060206881546268501C6060206843
:103680008654D4E90023D01857F825103246FDF7A8
:10369000B4F86068304460600198C1B26268501C40
:1036A000606020688154681CC5B24D45D8DB00209D
:1036B0008EE7F0B504460D46264601230020106033
:1036C000002114E0775C07F07F07106807FB030018
:1036D0001060705C00F0800008B9481CF0BDDB0190
:1036E000B3F5001F02D36FF00100F7E7491CA942B0
:1036F000E8DB4FF0FF30F1E72DE9F84380460C4658
:1037000015461E462F2108F10600FDF76CF8074606
:103710000020009017B90120BDE8F8837F1C6A469D
:10372000042108F10100FFF7C4FF2520FCF714FE77
:103730002060206808B90220EEE725212068FDF707
:1037400061F9242239462068FDF7E5F8243700980E
:103750002C3830803188481CFCF7FEFD2860286832
:1037600020B92068FCF727FE0320D5E73288511CDA
:103770002868FDF747F9328839462868FDF7CBF805
:103780000020C9E701464878022801D0012070478F
:10379000887810B18878012801D1C878F7E7FF2030
:1037A000F5E700002DE9FC5F81460D4614461E46F4
:1037B000DDE90C8B99F8000000F00F0A0020019061
:1037C0000AF008000090CAF341008BF8000001AA3B
:1037D000042109F10100FFF76CFF4844471C0198E0
:1037E000022802D30AF0010010B1FF20BDE8FC9FBF
:1037F0007878397840EA012020802088801C01995F
:10380000884201D9FF20F1E754A1B81CFDF707F861
:1038100008B10F20EAE79BF8000020B101283DD055
:10382000022877D13BE0009808B1FF20DEE721882D
:10383000481CFCF791FD2860286808B9FF20D5E7EF
:103840002288511C2868FDF7DDF82288B91C2868F9
:10385000FDF761F80198801E2188401AA8F8000041
:10386000B8F80010481CFCF777FD3060306820B9CC
:103870002868FCF7A0FDFF20B8E7B8F80020511C2D
:103880003068FDF7BFF8B8F80020B4F800C0BB1CE2
:103890000CEB03013068FDF73EF84FE000BF2088D5
:1038A000801C0199884201D9FF209FE72088C01C15
:1038B000395C2088801C385C41EA00210E98018028
:1038C0000E9808B9FF2091E72188481CFCF744FDB9
:1038D0002860286808B9FF2088E72288511C2868DA
:1038E000FDF790F82288B91C2868FDF714F80198B4
:1038F000001F2188401AA8F80000B8F80010481CE2
:10390000FCF72AFD3060306828B92868FCF753FDC1
:10391000FF206BE710E0B8F80020511C3068FDF77D
:1039200071F8B8F80020B4F800C03B1D0CEB03019F
:103930003068FCF7F0FF01E0FF2057E700BF2B21C4
:103940002846FCF750FF20B923212846FCF74BFFFF
:1039500008B1FF204AE7002048E7000024637265B1
:103960007100000001464878022801D0012070470C
:10397000887820B9C8780A2801D10020F7E701200B
:10398000F5E701464878022801D001207047887881
:1039900020B9C8780A2801D10020F7E70120F5E70F
:1039A00001464878022801D001207047887820B964
:1039B000C8780A2801D10020F7E70120F5E7024680
:1039C0005078022801D0012070479078B0EB112F79
:1039D00005D1D078CBB2984201D10020F4E7012084
:1039E000F2E70000F8B50446FF2720780511012D05
:1039F00001DB0E2D01DD3846F8BD032D24D100205A
:103A000000906A460421601CFFF753FE2044461CC8
:103A10000098022803D3207800F0010008B1FF20AD
:103A2000EAE77078317840EA0120801C00998842EA
:103A300001D9FF20E0E706A1B01CFCF7F0FE08B1B9
:103A40000F2700E0032700E02F463846D4E70000A8
:103A500024637265710000000146FF208A78A2B9D4
:103A6000CA78142A11D10A7932B1012A05D0022A62
:103A700004D0802A06D103E000BF00BF002003E08D
:103A8000012001E0022000BF00BF70470146012075
:103A90008A781AB9CA781E2A00D10020704770B5FA
:103AA000044600F023F8FEF71BFF05460DB1012088
:103AB00070BD00F047FC207000F044FC607000F026
:103AC00041FCA07000F03EFCE07000F03BFC207177
:103AD000207861780844A1780844E1780844217985
:103AE000884201D00120E3E70020E1E710B5FEF7AE
:103AF000D3FE002201210748FFF78CF9122001F0C4
:103B000021FA012211460348FFF784F9FEF7B6FEB9
:103B100010BD0000000C014000BFFEE77047000030
:103B200070B5002100230F22C47804B3154C24681B
:103B300004F4E064C4F5E064210AC1F10403CA405E
:103B4000447804FA03F184781440214309010E4CAF
:103B50000678A155047804F01F050124AC400578CF
:103B60006D11AD0005F1E025C5F8004109E00478CC
:103B700004F01F050124AC40044D0678761145F889
:103B8000264070BD0CED00E000E400E080E100E0C4
:103B900002490143024A1160704700000000FA0523
:103BA0000CED00E030B58BB0002007900890099034
:103BB0000A90012507A8002102910391CDE9041084
:103BC00000912B0228A201912AA127A0FFF77EFADB
:103BD000002842D1089A91B20798FFF745F8FA20D9
:103BE000FEF7DAFE0446002C33D02046FFF7FAFE3B
:103BF00002282ED12046FFF7C5FD062823D2DFE894
:103C000000F003090E13181D1DA1224800F0E0FF6B
:103C100000251DE020A11F4800F0DAFF18E025A1D3
:103C20001C4800F0D5FF13E02BA11A4800F0D0FF8C
:103C30000EE031A1174800F0CBFF09E037A115488D
:103C400000F0C6FF04E040A1124800F0C1FF00BF31
:103C500000BF07A8FFF7E8F903E042A10D4800F014
:103C6000B7FF28460BB030BD757365726E616D6528
:103C70000000000070617373776F726400000000D1
:103C8000546970733A09C1ACBDD3B3C9B9A60D0A62
:103C900000000000003801405741524E3A09C1ACC3
:103CA000BDD3CAA7B0DCA3BAD0ADD2E9B4EDCEF390
:103CB0000D0A00005741524E3A09C1ACBDD3CAA704
:103CC000B0DCA3BAB7C7B7A8B5C4636C69656E7436
:103CD00069640D0A000000005741524E3A09C1AC18
:103CE000BDD3CAA7B0DCA3BAB7FECEF1C6F7CAA748
:103CF000B0DC0D0A000000005741524E3A09C1AC39
:103D0000BDD3CAA7B0DCA3BAD3C3BBA7C3FBBBF266
:103D1000C3DCC2EBB4EDCEF30D0A00005741524EA6
:103D20003A09C1ACBDD3CAA7B0DCA3BAB7C7B7A81C
:103D3000C1B4BDD328B1C8C8E7746F6B656EB7C78F
:103D4000B7A8290D0A0000004552523A09C1ACBD7E
:103D5000D3CAA7B0DCA3BACEB4D6AAB4EDCEF30DC5
:103D60000A0000005741524E3A094D5154545F50D9
:103D700061636B6574436F6E6E6563742046616941
:103D80006C65640D0A00000070B588B005460C46ED
:103D9000002004900590069007902046FCF751FD06
:103DA000064604A80121002200923346CDE90121F4
:103DB0000390224629460A20FFF7D8FA38B9059A17
:103DC00091B20498FEF750FF04A8FFF72DF908B050
:103DD00070BD00002DE9F04F8FB0824600200B909F
:103DE0000C900D900E900A90099008900790002773
:103DF00006900025002483465046FFF7F3FD074652
:103E0000F81E0D287DD2DFE800F01359627D99BEBF
:103E1000A2BEB0BEBEBE070007AB0AAA09A95046A3
:103E2000FFF76AFC054615B90BA8FFF7FDF8ADE0F2
:103E30006E4806A907AA0AABCDE90021029008AA9C
:103E400009A95046FFF7AEFC0546002D35D10A986A
:103E500001F018F88046B8F1000F08D100F0ECFF2F
:103E6000024663A10290674800F0B2FE22E066A11C
:103E7000404600F0E7FF814665A1404600F0E2FFC2
:103E80000646D9F81400012803D1002062490860D1
:103E900010E0D9F8140018B901205F49086009E062
:103EA0007069012802D102F07BFD03E0706908B956
:103EB00002F06EFD404600F093FF67E05046FFF7CA
:103EC00051FD18B955A14F4800F082FE5EE0504602
:103ED000FFF766FDA0B959A14A4800F079FE0BA989
:103EE0000A20FFF743FB58B95AA1464800F070FE7C
:103EF0000C9A91B20B98FEF7B7FE0BA8FFF794F857
:103F000044E040E0394801885046FFF758FDA0B929
:103F100056A13C4800F05CFE0BA90A20FFF702FB0B
:103F200058B958A1374800F053FE0C9A91B20B983B
:103F3000FEF79AFE0BA8FFF777F827E05046FFF749
:103F400020FD18B956A12F4800F042FE1EE0504651
:103F5000FFF782FD20B958A12A4800F039FE03E09E
:103F60005CA1284800F034FE10E05046FFF78EFDBB
:103F700020B95FA1234800F02BFE03E063A1214894
:103F800000F026FE02E04FF0FF3500BF00BFFEF755
:103F9000F5FC681C10B90FB0BDE8F08F7D210A98C0
:103FA000FCF721FC0446A4B1681C90B1641C06E037
:103FB00014F8012B58460BF1010B03A90A54207881
:103FC000302802DB20783928F2DD03A8FCF7FEFB5D
:103FD00083460F2F01D0032F05D10998FCF7EBF989
:103FE0000A98FCF7E8F900BFD5E70000E8000020D8
:103FF0004572726F72206265666F7265203A5B254A
:10400000735D0A00003801404C45445F535700007F
:1040100072656C6179000000A0812142546970735F
:104020003A094D515454205075626C69736820539D
:10403000656E64204F4B0D0A0000000054697073D8
:104040003A09526576205075626C697368526563EF
:104050000D0A0000546970733A0953656E6420506C
:1040600075626C69736852656C0D0A0054697073EF
:104070003A09526576205075626C69736852656CB6
:104080000D0A0000546970733A0953656E6420503C
:1040900075626C697368436F6D700D0A00000000F3
:1040A000546970733A09526576205075626C697371
:1040B00068436F6D700D0A00546970733A094D5171
:1040C000545420537562736372696265204F4B0DBF
:1040D0000A000000546970733A094D51545420533A
:1040E0007562736372696265204572720D0A000021
:1040F000546970733A094D51545420556E5375628A
:10410000736372696265204F4B0D0A0054697073C6
:104110003A094D51545420556E5375627363726958
:104120006265204572720D0A0000000070B586B00D
:1041300004460D460026002002900390049005904E
:1041400007E054F826200DA1124800F041FD701C34
:10415000C6B2AE42F5DB02A82B46224602210090F1
:104160001420FFF727FA38B9039A91B20298FEF7A4
:104170007BFD02A8FEF758FF06B070BD5375627351
:10418000637269626520546F7069633A2025730D0C
:104190000A0000000038014027E04FF4FA7002F0F6
:1041A000E1FD1248008800F40040F0B110480078AA
:1041B00010B902F0F5FB15E00D480078012802D196
:1041C00002F0E6FB0EE00A480078022803D1002046
:1041D0000849086006E006480078032802D101205B
:1041E00004490860002001490880D6E7D400002077
:1041F000D0940020A081214201460020034A50684B
:1042000020F4404008435060704700000010024016
:1042100029B1064AD2690243044BDA6104E0034A39
:10422000D2698243014BDA617047000000100240FE
:1042300029B1064A92690243044B9A6104E0034A99
:1042400092698243014B9A6170470000001002405E
:1042500029B1064AD2680243044BDA6004E0034AFB
:10426000D2688243014BDA607047000000100240C0
:1042700030B500210022002400232D4D6D6805F08B
:104280000C0121B1042905D0082923D105E0294DCD
:10429000056022E0274D05601FE0254D6D6805F49F
:1042A0007012234D6D6805F48034022505EB9242AF
:1042B0001CB9214D554305600BE01D4D6D6805F49B
:1042C00000351DB11C4D5543056002E0194D5543A5
:1042D000056002E0174D056000BF00BF144D6D681A
:1042E00005F0F0010909154D6B5C0568DD4045607E
:1042F0000F4D6D6805F4E061090A104D6B5C45686F
:10430000DD4085600A4D6D6805F46051C90A0B4DAA
:104310006B5C4568DD40C560054D6D6805F4404146
:10432000890B074D6B5CC568B5FBF3F5056130BDC6
:104330000010024000127A0000093D000000002039
:104340001000002070B50025002424E000BF0121EA
:104350001348FEF752FD0028F9D0282000F012FE85
:1043600001210F48FEF749FD01280DD100BF0121B1
:104370000B48FEF742FD0128F9D0C4F107010120E6
:104380008840C0B2054304E0C4F107010120884021
:104390008543601CC4B2082CD8DB284670BD0000E1
:1043A000000C014008B50120ADF800008DF80200B6
:1043B00004208DF8030069460148FEF793FC08BD10
:1043C000001C014008B50120ADF8000010208DF858
:1043D000030003208DF8020069460248FEF782FCC4
:1043E00008BD0000001C014008B501218020FFF736
:1043F0001FFF0220ADF8000010208DF803000320FD
:104400008DF8020069460548FEF76CFC0120ADF806
:10441000000069460148FEF765FC08BD001C01402C
:1044200010B502210B48FEF7F1FCFFF7CBFF01218D
:104430000848FEF7EBFC142000F0A4FD022105481B
:10444000FEF7E6FC142000F09DFD02210148FEF776
:10445000DDFC10BD001C014010B502210B48FEF729
:10446000D5FCFFF7AFFF01210848FEF7D1FC14206F
:1044700000F088FD02210548FEF7CAFC142000F078
:1044800081FD02210148FEF7C1FC10BD001C014066
:1044900070B505460024FFF785FF00261AE00221CB
:1044A0001148FEF7B3FC142000F06CFD02210E4809
:1044B000FEF7AEFC4FF6FF7000EA440401210A4803
:1044C000FEF79BFC08B1601C84B2142000F05AFD7A
:1044D000701CC6B2082EE2DB15B9FFF7BDFF01E084
:1044E000FFF79EFF204670BD001C014070B50446DA
:1044F000FFF768FF02211548FEF788FC00251FE042
:10450000E00920B101211148FEF782FC03E00121FE
:104510000E48FEF77BFC6006040E142000F032FD0E
:1045200002210A48FEF774FC142000F02BFD022142
:104530000648FEF76BFC142000F024FD681CC5B291
:10454000082DDDDB142000F01DFD70BD001C0140B6
:1045500010B5FFF737FF01210A48FEF759FC022189
:104560000848FEF755FC142000F00CFD0121054819
:10457000FEF74CFC142000F005FD02210148FEF777
:1045800045FC10BD001C014010B5FFF71BFF0221C8
:104590000A48FEF73BFC01210848FEF737FC1420CF
:1045A00000F0F0FC02210548FEF732FC012103482F
:1045B000FEF72EFC142000F0E5FC10BD001C0140AD
:1045C00010B50024FFF7EEFE01211148FEF720FC94
:1045D0000A2000F0D7FC02210D48FEF719FC0A2042
:1045E00000F0D0FC07E0601CC4B2FA2C03DDFFF73A
:1045F000CBFF012010BD01210548FEF7FEFB00287E
:10460000F1D102210248FEF701FC0020F2E7000090
:10461000001C014010B5FFF7E7FE0321202000F049
:1046200025F810BD70B5FFF793FFB120FFF75EFFCF
:10463000FFF7C6FF0120FFF72BFF044624020120ED
:10464000FFF726FF04440120FFF722FFC5B200BF99
:1046500024020120FFF71CFF044424020020FFF77E
:1046600017FF0444FFF790FF204670BD70B5054664
:104670000C46FFF76DFFB020FFF738FFFFF7A0FFF4
:104680002846FFF733FFFFF79BFF2046FFF72EFF7B
:10469000FFF796FFFFF778FF642000F053FC70BD32
:1046A00010B500F001F810BD0CB50020019000908D
:1046B0003348006840F480303149086000BF30481A
:1046C000006800F4003000900198401C01900098B0
:1046D00018B90198B0F5A06FF1D12948006800F42D
:1046E000003010B10120009001E0002000900098FF
:1046F000012843D12348006840F010002149086098
:104700000846006820F0030008600846006840F092
:10471000020008601A484068194948600846406825
:1047200048600846406840F4806048600846406839
:1047300020F47C1048600846406840F4E810486067
:104740000846006840F08070086000BF0C480068B0
:1047500000F000700028F9D00948406820F00300FC
:10476000074948600846406840F00200486000BFC2
:104770000348406800F00C000828F9D10CBD000087
:104780000010024000200240042808D14FF0E02130
:10479000096941F004014FF0E022116107E04FF098
:1047A000E021096921F004014FF0E0221161704716
:1047B00010B502F095FD012801D002F047FD10BDB3
:1047C00070B505460420FFF7DFFF10480068104968
:1047D000B0FBF1F00F4908700C4800680C49B0FBC1
:1047E000F1F44FF47A70444301200B4908804FF0F4
:1047F000E020006940F002004FF0E0210861084627
:104800004461006940F00100086170BD140000209F
:1048100040420F00CC000020CE00002010B513480D
:10482000006840F0010011490860084640681049DE
:1048300008400E494860084600680E4908400B4988
:1048400008600846006820F4802008600846406838
:1048500020F4FE0048604FF41F008860FFF720FF3F
:104860004FF000600449086010BD000000100240D5
:104870000000FFF8FFFFF6FE08ED00E010B540F283
:1048800025511D4800F086F810B31B4800F03EF992
:10489000C4B21A48008800F40040C8B9174800881C
:1048A00000F4804060B10A2C03D000201349088036
:1048B00020E01248008840F400401049088019E0C8
:1048C0000D2C06D10D48008840F480400B4908802B
:1048D00010E00A480088C0F30D0009490C5407484D
:1048E0000088401C0549088008460088C72801DD6B
:1048F0000020088010BD000000380140D4000020D6
:10490000D094002010B540F225510E4800F042F836
:10491000B0B10D480088802802D300200A490880E1
:104920000848001D0088C1B2074802880088401C62
:10493000054B1880054881542021024800F008F8F2
:1049400010BD000000440040E400002098950020C5
:1049500001F40072B2F5007F00D100BFCA430280AB
:10496000704721B1828942F40052828104E0828939
:104970004DF6FF731A408281704702460020B1F560
:10498000007F00D100BF13880B400BB1012000E075
:104990000020704770B50246002400230025002047
:1049A00040F66A16B14200D100BFC1F3421501F0D2
:1049B0001F03012606FA03F3012D02D19689334025
:1049C00006E0022D02D1168A334001E0968A334078
:1049D0000C12012606FA04F41688344013B10CB107
:1049E000012000E0002070BDF0B503460024002641
:1049F0000025002040F66A17B94200D100BF1846D2
:104A0000C1F3421401F01F06012707FA06F5012C35
:104A100001D10C3004E0022C01D1103000E0143040
:104A20001AB107682F43076002E00768AF430760C9
:104A3000F0BD00002DE9F04786B005460E46002483
:104A4000A24600BFA1460027B08900B100BF2F4693
:104A50002C8A4CF6FF700440F08804432C82AC8909
:104A60004EF6F3100440B088318908437189084339
:104A70000443AC81AC8A4FF6FF400440B089044344
:104A8000AC8201A8FFF7F4FB1F48874202D1DDF892
:104A900010A001E0DDF80CA0A88900F4004040B1AE
:104AA0000AEBCA0000EB0A1031684900B0FBF1F8CC
:104AB00007E00AEBCA0000EB0A1031688900B0FB7E
:104AC000F1F86420B8FBF0F004012009642101FB37
:104AD0001089A88900F4004040B1322000EBC900E1
:104AE000B0FBF1F000F00700044308E0322000EBD7
:104AF00009106421B0FBF1F000F00F0004432C8199
:104B000006B0BDE8F0870000003801400146888803
:104B1000C0F308007047C1F308028280704700BFED
:104B2000FEE7000010B586B0044601210420FFF71F
:104B30007FFB01214804FFF76BFB18208DF817005D
:104B40000420ADF8140003208DF8160005A91E48B6
:104B5000FEF7C8F804208DF817000820ADF81400FF
:104B600003208DF8160005A91748FEF7BBF801943D
:104B70000020ADF810000C20ADF80E000020ADF8BC
:104B80000C00ADF80A00ADF8080001A90F48FFF7C6
:104B900051FF01210D48FFF7E4FE012240F22551AB
:104BA0000A48FFF721FF26208DF8000001208DF82C
:104BB000030000208DF801008DF802006846FEF722
:104BC000AFFF06B010BD00000008014000440040E7
:104BD0000FB430B5CBB0054601AC50A800904FF4EF
:104BE000947101A8009B4F9AFBF71AFC00200090DB
:104BF0000BE014F8011B2846FFF78DFF00BF402192
:104C00002846FFF7BAFE0028F9D020780028F0D116
:104C10004BB030BC5DF814FB2DE9F04107460C4663
:104C2000154600260DE014F8011B3846FFF773FF08
:104C300000BF40213846FFF7A0FE0028F9D0701CC5
:104C400086B2AE42EFDBBDE8F081000038B501214D
:104C50002020FFF7EDFA2020ADF8000001208DF8AC
:104C6000020004208DF8030069460548FEF73AF873
:104C700020210348FEF7C1F80446204638BD000055
:104C800000140140490050EAC12018BF04204A0D19
:104C900018BF40F0010040F2FF72B2EB515F08BF55
:104CA00040F00200012808BF052070472DE9F041BF
:104CB0004F1E00EBC7010446D1E9000115461E4610
:104CC00037F006020DD02A46334602F071FF7F1EF0
:104CD00004EBC703D3E9002302F0C0FC37F006025F
:104CE000F1D1022F25D0042F13D0062F18BFBDE815
:104CF000F0812A46334602F05BFFD4E90A2302F032
:104D0000ADFC2A46334602F053FFD4E9082302F0F3
:104D1000A5FC2A46334602F04BFFD4E9062302F0F5
:104D20009DFC2A46334602F043FFD4E9042302F0F7
:104D300095FC2A46334602F03BFFD4E9022302F0F9
:104D40008DFC2A46334602F033FFD4E90023BDE848
:104D5000F04102F083BC00000022134610460149D6
:104D600002F038BD0000F03F02F078BC002213468C
:104D70001046114602F02EBD40F2013200204FF0E5
:104D8000E04103F01CBD0000024A0020110703F0BF
:104D900016BD000001FDFFFF30380A2801D20120B6
:104DA00070470020704700BF704700004FF4FA7052
:104DB00001F0D8FF10E04FF47A7001F0D3FFFFF755
:104DC00045FF0649086008460068012802D101F045
:104DD00011FE01E001F004FEEDE7000044000020B8
:104DE00070B5044622E02568A08900F4807020B9DF
:104DF000A06810B1A068FFF7F3FFA08900F48070ED
:104E000028B9206918B10B49206909688847A08929
:104E100000F4007028B9206A18B10649206A0968B0
:104E2000884720460349096888472C46002CDAD178
:104E300070BD0000E00000200148006870470000DD
:104E4000D800002070B505460E46AC6800E0246826
:104E50002CB13146206A00F04FF80028F7D12046E7
:104E600070BD000010B52820054909688847044630
:104E70001CB128212046FBF7E7FD204610BD0000AD
:104E8000DC00002010B5044600221146204600F048
:104E900001F810BD2DE9F04780460D461646002466
:104EA000FFF7E0FF07460020124908600FB9BDE890
:104EB000F087404601F08AFD81464946384600F0B9
:104EC000E7FC044624B93846FFF78AFF0020EEE7E6
:104ED00066B1204601F07AFD0446207830B13846AC
:104EE000FFF77EFF034804600020E0E705B12C6077
:104EF0003846DCE7D800002070B504460D462CB9D2
:104F0000AC4201D0012070BD0020FCE70DB90120AA
:104F1000F9E705E0207808B90020F4E7641C6D1C6F
:104F20002078FBF76FFA06462878FBF76BFA864283
:104F3000F0D02078FBF766FA06462878FBF762FA8D
:104F4000301AE0E770B5044602F0CAF9012810D023
:104F50000B480088844206D309480088B4FBF0F56A
:104F6000284601F0FFFE06480088B4FBF0F100FB84
:104F700011444FF47A7104FB01F000F003F870BDA6
:104F8000CE00002070B5034600224FF0E026756980
:104F90000D4E367803FB06F44FF0E026B16910E0C1
:104FA0004FF0E026B06988420BD0884202D20E1A38
:104FB000324402E02E1A0E4432440146A24200D38B
:104FC00000E0EDE700BF70BDCC00002000BF054A47
:104FD000128802F04002002AF9D0C2B2014B1B1D18
:104FE0001A8070470038014010B54FF480610C48BA
:104FF000FDF70CFF00F026F84FF400610848FDF7BC
:1050000007FF00F01FF84FF400610548FDF7FEFEB2
:1050100000F018F84FF480610148FDF7F9FE10BD6B
:10502000000C014070B50446FDF748FF00F082F81F
:10503000204600F04DF800F0B1F8054600F098F871
:10504000284670BD002001E0411CC8B20A28FBDBE5
:105050007047000010B54FF480610A48FDF7D8FE94
:10506000FFF7F0FF4FF400610648FDF7D1FEFFF7B0
:10507000E9FF4FF400610348FDF7C8FEFFF7E2FFC8
:1050800010BD0000000C014070B50024002519E09F
:105090006006040E4FF400610C48FDF7B9FEFFF7FF
:1050A000D1FF4FF480610948FDF7A7FE08B1601CED
:1050B000C4B24FF400610548FDF7A8FEFFF7C2FF38
:1050C000681CC5B2082DE3DB204670BD000C014012
:1050D00070B50446002528E004F0800028B14FF4A4
:1050E00080611348FDF794FE04E04FF4806110489E
:1050F000FDF78CFEFFF7A6FF4FF400610C48FDF7AB
:1051000087FEFFF79FFF4FF400610948FDF77EFE21
:10511000072D04D14FF480610548FDF779FE600644
:10512000040EFFF78FFF681CC5B2082DD4DB70BDDD
:10513000000C014010B54FF480610C48FDF768FE8B
:105140004FF400610948FDF763FEFFF77BFF4FF462
:1051500080610648FDF75AFEFFF774FF4FF40061C7
:105160000248FDF753FEFFF76DFF10BD000C014034
:1051700010B54FF480610848FDF748FE4FF4006118
:105180000548FDF745FEFFF75DFF4FF480610248DB
:10519000FDF73EFE10BD0000000C014010B54FF4BD
:1051A00080610F48FDF734FEFFF74CFF4FF40061BC
:1051B0000B48FDF72DFEFFF745FF4FF480610848CF
:1051C000FDF71BFE08B1012400E000244FF400614C
:1051D0000348FDF71BFEFFF735FF204610BD00001A
:1051E000000C01401CB54820FFF7EAFA0124FDF746
:1051F00009FB0A4809210023A202CDE9001008A1F9
:105200000B4802F03DF80446012C02D101F07AFE71
:1052100002E04FF0FF301CBD00BFFEE74C00002055
:105220004170705461736B43726561746500000076
:10523000312500082DE9F04705460C4620785B280B
:1052400004D0264804600020BDE8F0870520E8600F
:10525000601C01F0BBFB044620785D2801D1601C76
:10526000F2E7FFF7FFFD0646A860A86808B900202E
:10527000EAE7204601F0AAFB80464146304600F0AE
:1052800007FB074601F0A2FB04460CB90020DBE750
:1052900017E0FFF7E7FD071E00D1D5E737607E6016
:1052A0003E46601C01F092FB81464946304600F0C4
:1052B000EFFA804601F08AFB04460CB90020C3E7F0
:1052C00000BF20782C28E4D020785D2801D1601C14
:1052D000BAE7024804600020B6E70000D8000020CA
:1052E000014600220878302806DB0878392803DCDC
:1052F00008783038024415E00878412806DB087841
:10530000462803DC0878373802440BE00878612827
:1053100006DB0878662803DC08785738024401E089
:10532000002070471201491C0878302806DB0878F5
:10533000392803DC08783038024415E00878412821
:1053400006DB0878462803DC0878373802440BE08F
:105350000878612806DB0878662803DC0878573867
:10536000024401E00020DCE71201491C08783028E3
:1053700006DB0878392803DC08783038024415E069
:105380000878412806DB0878462803DC0878373897
:1053900002440BE00878612806DB0878662803DC05
:1053A00008785738024401E00020BAE71201491C8E
:1053B0000878302806DB0878392803DC087830388C
:1053C000024415E00878412806DB0878462803DC0B
:1053D0000878373802440BE00878612806DB087843
:1053E000662803DC08785738024401E0002098E77B
:1053F000104696E72DE9F04F8BB083468A46002091
:10540000044605460026674F0021884689460990D4
:10541000012008909AF800002D2802D1624F0AF16D
:10542000010A9AF80000302801D10AF1010A9AF81D
:105430000000312822DB9AF8000039281EDC00BF6A
:105440001AF8011BA1F1300002F04BFB0022574B70
:10545000CDE906012046294602F0AAFBCDE9040168
:10546000DDE9062302F0FAF804460D469AF800003A
:10547000302803DB9AF800003928E1DD9AF80000B3
:105480002E2830D19AF8010030282CDB9AF8010040
:10549000392828DC0AF1010A00BF1AF8011BA1F122
:1054A000300002F01EFB0022404BCDE906012046F1
:1054B000294602F07DFBCDE90401DDE9062302F077
:1054C000CDF804460D460022364B4046494602F0D0
:1054D00095FD804689469AF80000302803DB9AF84B
:1054E00000003928D9DD9AF80000652803D09AF821
:1054F0000000452823D10AF1010A9AF800002B2860
:1055000002D10AF1010A08E09AF800002D2804D11E
:105510004FF0FF3008900AF1010A08E01AF8010B79
:105520003038099901EB810100EB410009909AF8AC
:105530000000302803DB9AF800003928EEDDDDE9B1
:10554000082101FB02F002F0CCFA42464B46CDE9BD
:10555000000102F083F802460B46CDE9020100206B
:10556000124900F0F3F922462B46CDE906013046F8
:10557000394602F01DFBCDE90401DDE9062302F006
:1055800017FB04460D46CBE906452046294602F0A6
:1055900079FACBF814000320CBF80C0050460BB07E
:1055A000BDE8F08F0000F03F0000F0BF0000244095
:1055B0002DE9F04706460C4620787B2804D0404869
:1055C00004600020BDE8F0870620F060601C01F058
:1055D000FDF9044620787D2801D1601CF2E7FFF731
:1055E00041FC0546B060B06808B90020EAE72046F3
:1055F00001F0ECF980464146284600F063F8074682
:1056000001F0E4F904460CB90020DBE728692862C0
:105610000020286120783A2803D02948046000201F
:10562000D0E7601C01F0D2F980464146284600F0E0
:105630002FF9074601F0CAF904460CB90020C1E76A
:1056400031E0FFF70FFC071E00D1BBE72F607D6044
:105650003D46601C01F0BAF981464946284600F0F3
:1056600031F8804601F0B2F904460CB90020A9E7F0
:10567000286928620020286120783A2803D0104841
:10568000046000209EE7601C01F0A0F981464946B5
:10569000284600F0FDF8804601F098F904460CB960
:1056A00000208FE700BF20782C28CAD020787D28E2
:1056B00001D1601C86E702480460002082E70000F8
:1056C000D80000202DE9F05F8346884608F10104E8
:1056D000002798F80000222805D06A48C0F800800A
:1056E0000020BDE8F09F04E014F8011B5C2900D104
:1056F000641C2078222804D0207810B1781C071E62
:10570000F2D1781C6049096888478146B9F1000FD9
:1057100001D10020E5E708F101044D469EE0207824
:105720005C2804D014F8010B05F8010B96E0641C0A
:105730002078722818D006DC622809D066280BD0A1
:105740006E287DD10CE0742812D07528F9D113E0B1
:10575000082005F8010B7FE00C2005F8010B7BE029
:105760000A2005F8010B77E00D2005F8010B73E026
:10577000092005F8010B6FE0601CFFF7B1FD06463C
:10578000241DB6F55C4F02D3B6F5604F00D306B9C1
:1057900062E0B6F5584F1CD3B6F55C4F19D260786D
:1057A0005C2802D1A078752800D055E0E01CFFF7F6
:1057B00097FD8246A41DBAF55C4F02D3BAF5604F3F
:1057C00000D349E0C6F30901504661F39F2000F57C
:1057D00080360427802E01D2012708E0B6F5006F3D
:1057E00001D2022703E0B6F5803F00D203273D44F3
:1057F000012F20D0022F15D0032F0AD0042F24D13F
:1058000006F0BF0040F08001681E05460170B60931
:1058100000BF06F0BF0040F08001681E0546017021
:10582000B60900BF06F0BF0040F08001681E0546C3
:105830000170B60900BF1548C05D3043C1B200E039
:1058400006E0681E0546017000BF00BF3D4403E04E
:10585000207805F8010B00BF00BF641C20782228C7
:1058600003D0207800287FF45AAF002028702078D9
:10587000222800D1641CCBF810900420CBF80C0037
:1058800020462EE7D8000020DC00002054880008C5
:1058900070B505460C460CB9002070BD042224A149
:1058A0002046FAF7EDFF18B90220E860201DF4E762
:1058B000052221A12046FAF7E3FF18B90020E8608D
:1058C000601DEAE704221EA12046FAF7D9FF20B99D
:1058D0000120E8606861201DDFE72078222804D1DC
:1058E00021462846FFF7EEFED7E720782D2805D081
:1058F0002078302807DB2078392804DC2146284628
:10590000FFF778FDC9E720785B2804D121462846B7
:10591000FFF790FCC1E720787B2804D12146284678
:10592000FFF746FEB9E7084804600020B5E700002D
:105930006E756C6C0000000066616C7365000000A1
:105940007472756500000000D80000202DE9F04D4C
:105950001D460C4698B0174621F0004123F0004345
:10596000002814BF4FF0010C4FF0000C0CEB440C5E
:10597000FE4A0CEB02064FEA620C66452BD33E0052
:1059800018BF012606EB45061644F94A964222D373
:10599000F84A53EA070C02D0944205D148B918B02E
:1059A00000201146BDE8F08D002808BF4FF0000C24
:1059B00001D04FF0010C0CEB440212F5001F0AD885
:1059C000002F14BF4FF0010C4FF0000C0CEB450200
:1059D00012F5001F07D918B03A462B462146BDE8FC
:1059E000F04DFFF7C1B90022DFF88CA3002CB8BF3F
:1059F000534526DADFF884C36345A8BF022220DAC4
:105A0000DFF870C39C451CDCDFF874C30CEB235C2F
:105A1000BCF1140F08DDCCF1340627FA06FC0CFAB1
:105A200006F6BE420DD108E05FB9CCF1140623FAA8
:105A300006FC0CFA06F69E4203D10CF00102C2F1FC
:105A4000020251EA000C19D1002D17DA002C18BF00
:105A5000022A01D0012A07D00220FBF782F818B0F1
:105A6000BDE8F04DFFF778B90220FBF77AF8FFF7B1
:105A700073F918B081F00041BDE8F08DB7F1000C6A
:105A80006CD1534525D104F1804212F5801201BF3B
:105A900000280020B74918B008BFBDE8F08DB54810
:105AA000884207DC002DA1BF6046294618B0BDE83A
:105AB000F08D07E0281E05DA80F0004118B060463E
:105AC000BDE8F08DAF497944D1E9000118B0BDE8D7
:105AD000F08DDFF8A0C2634525D1002D1FDA19B182
